{
  "_format": "hh-sol-artifact-1",
  "contractName": "VeriMint",
  "sourceName": "contracts/VeriMint.sol",
  "abi": [
    {
      "inputs": [],
      "stateMutability": "nonpayable",
      "type": "constructor"
    },
    {
      "inputs": [
        {
          "internalType": "address",
          "name": "sender",
          "type": "address"
        },
        {
          "internalType": "uint256",
          "name": "tokenId",
          "type": "uint256"
        },
        {
          "internalType": "address",
          "name": "owner",
          "type": "address"
        }
      ],
      "name": "ERC721IncorrectOwner",
      "type": "error"
    },
    {
      "inputs": [
        {
          "internalType": "address",
          "name": "operator",
          "type": "address"
        },
        {
          "internalType": "uint256",
          "name": "tokenId",
          "type": "uint256"
        }
      ],
      "name": "ERC721InsufficientApproval",
      "type": "error"
    },
    {
      "inputs": [
        {
          "internalType": "address",
          "name": "approver",
          "type": "address"
        }
      ],
      "name": "ERC721InvalidApprover",
      "type": "error"
    },
    {
      "inputs": [
        {
          "internalType": "address",
          "name": "operator",
          "type": "address"
        }
      ],
      "name": "ERC721InvalidOperator",
      "type": "error"
    },
    {
      "inputs": [
        {
          "internalType": "address",
          "name": "owner",
          "type": "address"
        }
      ],
      "name": "ERC721InvalidOwner",
      "type": "error"
    },
    {
      "inputs": [
        {
          "internalType": "address",
          "name": "receiver",
          "type": "address"
        }
      ],
      "name": "ERC721InvalidReceiver",
      "type": "error"
    },
    {
      "inputs": [
        {
          "internalType": "address",
          "name": "sender",
          "type": "address"
        }
      ],
      "name": "ERC721InvalidSender",
      "type": "error"
    },
    {
      "inputs": [
        {
          "internalType": "uint256",
          "name": "tokenId",
          "type": "uint256"
        }
      ],
      "name": "ERC721NonexistentToken",
      "type": "error"
    },
    {
      "inputs": [
        {
          "internalType": "address",
          "name": "owner",
          "type": "address"
        }
      ],
      "name": "OwnableInvalidOwner",
      "type": "error"
    },
    {
      "inputs": [
        {
          "internalType": "address",
          "name": "account",
          "type": "address"
        }
      ],
      "name": "OwnableUnauthorizedAccount",
      "type": "error"
    },
    {
      "anonymous": false,
      "inputs": [
        {
          "indexed": true,
          "internalType": "address",
          "name": "owner",
          "type": "address"
        },
        {
          "indexed": true,
          "internalType": "address",
          "name": "approved",
          "type": "address"
        },
        {
          "indexed": true,
          "internalType": "uint256",
          "name": "tokenId",
          "type": "uint256"
        }
      ],
      "name": "Approval",
      "type": "event"
    },
    {
      "anonymous": false,
      "inputs": [
        {
          "indexed": true,
          "internalType": "address",
          "name": "owner",
          "type": "address"
        },
        {
          "indexed": true,
          "internalType": "address",
          "name": "operator",
          "type": "address"
        },
        {
          "indexed": false,
          "internalType": "bool",
          "name": "approved",
          "type": "bool"
        }
      ],
      "name": "ApprovalForAll",
      "type": "event"
    },
    {
      "anonymous": false,
      "inputs": [
        {
          "indexed": false,
          "internalType": "uint256",
          "name": "tokenId",
          "type": "uint256"
        },
        {
          "indexed": false,
          "internalType": "address",
          "name": "student",
          "type": "address"
        },
        {
          "indexed": false,
          "internalType": "string",
          "name": "uri",
          "type": "string"
        },
        {
          "indexed": false,
          "internalType": "bytes32",
          "name": "orgCode",
          "type": "bytes32"
        }
      ],
      "name": "CertMinted",
      "type": "event"
    },
    {
      "anonymous": false,
      "inputs": [
        {
          "indexed": false,
          "internalType": "uint256",
          "name": "tokenId",
          "type": "uint256"
        },
        {
          "indexed": false,
          "internalType": "address",
          "name": "student",
          "type": "address"
        },
        {
          "indexed": false,
          "internalType": "bytes32",
          "name": "orgCode",
          "type": "bytes32"
        },
        {
          "indexed": false,
          "internalType": "string",
          "name": "uri",
          "type": "string"
        }
      ],
      "name": "CertRecord",
      "type": "event"
    },
    {
      "anonymous": false,
      "inputs": [
        {
          "indexed": false,
          "internalType": "uint256",
          "name": "tokenId",
          "type": "uint256"
        }
      ],
      "name": "CertRevoked",
      "type": "event"
    },
    {
      "anonymous": false,
      "inputs": [
        {
          "indexed": false,
          "internalType": "bytes32",
          "name": "orgCode",
          "type": "bytes32"
        },
        {
          "indexed": false,
          "internalType": "address",
          "name": "addr",
          "type": "address"
        }
      ],
      "name": "OrgAdded",
      "type": "event"
    },
    {
      "anonymous": false,
      "inputs": [
        {
          "indexed": false,
          "internalType": "bytes32",
          "name": "orgCode",
          "type": "bytes32"
        }
      ],
      "name": "OrgBlocked",
      "type": "event"
    },
    {
      "anonymous": false,
      "inputs": [
        {
          "indexed": false,
          "internalType": "bytes32",
          "name": "orgCode",
          "type": "bytes32"
        }
      ],
      "name": "OrgRemoved",
      "type": "event"
    },
    {
      "anonymous": false,
      "inputs": [
        {
          "indexed": false,
          "internalType": "bytes32",
          "name": "orgCode",
          "type": "bytes32"
        }
      ],
      "name": "OrgUnblocked",
      "type": "event"
    },
    {
      "anonymous": false,
      "inputs": [
        {
          "indexed": true,
          "internalType": "address",
          "name": "previousOwner",
          "type": "address"
        },
        {
          "indexed": true,
          "internalType": "address",
          "name": "newOwner",
          "type": "address"
        }
      ],
      "name": "OwnershipTransferred",
      "type": "event"
    },
    {
      "anonymous": false,
      "inputs": [
        {
          "indexed": true,
          "internalType": "address",
          "name": "from",
          "type": "address"
        },
        {
          "indexed": true,
          "internalType": "address",
          "name": "to",
          "type": "address"
        },
        {
          "indexed": true,
          "internalType": "uint256",
          "name": "tokenId",
          "type": "uint256"
        }
      ],
      "name": "Transfer",
      "type": "event"
    },
    {
      "anonymous": false,
      "inputs": [
        {
          "indexed": false,
          "internalType": "uint256",
          "name": "tokenId",
          "type": "uint256"
        },
        {
          "indexed": false,
          "internalType": "string",
          "name": "oldURI",
          "type": "string"
        },
        {
          "indexed": false,
          "internalType": "string",
          "name": "newURI",
          "type": "string"
        }
      ],
      "name": "URIChanged",
      "type": "event"
    },
    {
      "inputs": [
        {
          "internalType": "bytes32",
          "name": "orgCode",
          "type": "bytes32"
        },
        {
          "internalType": "address",
          "name": "addr",
          "type": "address"
        }
      ],
      "name": "addOrg",
      "outputs": [],
      "stateMutability": "nonpayable",
      "type": "function"
    },
    {
      "inputs": [
        {
          "internalType": "address",
          "name": "to",
          "type": "address"
        },
        {
          "internalType": "uint256",
          "name": "tokenId",
          "type": "uint256"
        }
      ],
      "name": "approve",
      "outputs": [],
      "stateMutability": "nonpayable",
      "type": "function"
    },
    {
      "inputs": [
        {
          "internalType": "address",
          "name": "owner",
          "type": "address"
        }
      ],
      "name": "balanceOf",
      "outputs": [
        {
          "internalType": "uint256",
          "name": "",
          "type": "uint256"
        }
      ],
      "stateMutability": "view",
      "type": "function"
    },
    {
      "inputs": [
        {
          "internalType": "bytes32",
          "name": "orgCode",
          "type": "bytes32"
        }
      ],
      "name": "blockOrg",
      "outputs": [],
      "stateMutability": "nonpayable",
      "type": "function"
    },
    {
      "inputs": [
        {
          "internalType": "uint256",
          "name": "",
          "type": "uint256"
        }
      ],
      "name": "certificates",
      "outputs": [
        {
          "internalType": "string",
          "name": "uri",
          "type": "string"
        },
        {
          "internalType": "address",
          "name": "studentAddr",
          "type": "address"
        },
        {
          "internalType": "bytes32",
          "name": "orgCode",
          "type": "bytes32"
        },
        {
          "internalType": "bool",
          "name": "revoked",
          "type": "bool"
        }
      ],
      "stateMutability": "view",
      "type": "function"
    },
    {
      "inputs": [
        {
          "internalType": "uint256",
          "name": "tokenId",
          "type": "uint256"
        }
      ],
      "name": "getApproved",
      "outputs": [
        {
          "internalType": "address",
          "name": "",
          "type": "address"
        }
      ],
      "stateMutability": "view",
      "type": "function"
    },
    {
      "inputs": [
        {
          "internalType": "bytes32",
          "name": "orgCode",
          "type": "bytes32"
        }
      ],
      "name": "getCertsByOrg",
      "outputs": [
        {
          "internalType": "uint256[]",
          "name": "",
          "type": "uint256[]"
        }
      ],
      "stateMutability": "view",
      "type": "function"
    },
    {
      "inputs": [
        {
          "internalType": "address",
          "name": "student",
          "type": "address"
        }
      ],
      "name": "getCertsByStudent",
      "outputs": [
        {
          "internalType": "uint256[]",
          "name": "",
          "type": "uint256[]"
        }
      ],
      "stateMutability": "view",
      "type": "function"
    },
    {
      "inputs": [
        {
          "internalType": "address",
          "name": "owner",
          "type": "address"
        },
        {
          "internalType": "address",
          "name": "operator",
          "type": "address"
        }
      ],
      "name": "isApprovedForAll",
      "outputs": [
        {
          "internalType": "bool",
          "name": "",
          "type": "bool"
        }
      ],
      "stateMutability": "view",
      "type": "function"
    },
    {
      "inputs": [
        {
          "internalType": "address",
          "name": "student",
          "type": "address"
        },
        {
          "internalType": "string",
          "name": "uri",
          "type": "string"
        },
        {
          "internalType": "bytes32",
          "name": "orgCode",
          "type": "bytes32"
        }
      ],
      "name": "mint",
      "outputs": [
        {
          "internalType": "uint256",
          "name": "",
          "type": "uint256"
        }
      ],
      "stateMutability": "nonpayable",
      "type": "function"
    },
    {
      "inputs": [],
      "name": "name",
      "outputs": [
        {
          "internalType": "string",
          "name": "",
          "type": "string"
        }
      ],
      "stateMutability": "view",
      "type": "function"
    },
    {
      "inputs": [
        {
          "internalType": "bytes32",
          "name": "",
          "type": "bytes32"
        }
      ],
      "name": "orgExists",
      "outputs": [
        {
          "internalType": "bool",
          "name": "",
          "type": "bool"
        }
      ],
      "stateMutability": "view",
      "type": "function"
    },
    {
      "inputs": [
        {
          "internalType": "bytes32",
          "name": "",
          "type": "bytes32"
        }
      ],
      "name": "orgs",
      "outputs": [
        {
          "internalType": "bytes32",
          "name": "orgCode",
          "type": "bytes32"
        },
        {
          "internalType": "address",
          "name": "addr",
          "type": "address"
        },
        {
          "internalType": "bool",
          "name": "blocked",
          "type": "bool"
        }
      ],
      "stateMutability": "view",
      "type": "function"
    },
    {
      "inputs": [],
      "name": "owner",
      "outputs": [
        {
          "internalType": "address",
          "name": "",
          "type": "address"
        }
      ],
      "stateMutability": "view",
      "type": "function"
    },
    {
      "inputs": [
        {
          "internalType": "uint256",
          "name": "tokenId",
          "type": "uint256"
        }
      ],
      "name": "ownerOf",
      "outputs": [
        {
          "internalType": "address",
          "name": "",
          "type": "address"
        }
      ],
      "stateMutability": "view",
      "type": "function"
    },
    {
      "inputs": [
        {
          "internalType": "bytes32",
          "name": "orgCode",
          "type": "bytes32"
        }
      ],
      "name": "removeOrg",
      "outputs": [],
      "stateMutability": "nonpayable",
      "type": "function"
    },
    {
      "inputs": [],
      "name": "renounceOwnership",
      "outputs": [],
      "stateMutability": "nonpayable",
      "type": "function"
    },
    {
      "inputs": [
        {
          "internalType": "uint256",
          "name": "tokenId",
          "type": "uint256"
        }
      ],
      "name": "resolveDetails",
      "outputs": [
        {
          "internalType": "address",
          "name": "orgAddr",
          "type": "address"
        },
        {
          "internalType": "address",
          "name": "studentAddr",
          "type": "address"
        },
        {
          "internalType": "bytes32",
          "name": "orgCode",
          "type": "bytes32"
        }
      ],
      "stateMutability": "view",
      "type": "function"
    },
    {
      "inputs": [
        {
          "internalType": "uint256",
          "name": "tokenId",
          "type": "uint256"
        }
      ],
      "name": "revokeCert",
      "outputs": [],
      "stateMutability": "nonpayable",
      "type": "function"
    },
    {
      "inputs": [
        {
          "internalType": "address",
          "name": "from",
          "type": "address"
        },
        {
          "internalType": "address",
          "name": "to",
          "type": "address"
        },
        {
          "internalType": "uint256",
          "name": "tokenId",
          "type": "uint256"
        }
      ],
      "name": "safeTransferFrom",
      "outputs": [],
      "stateMutability": "nonpayable",
      "type": "function"
    },
    {
      "inputs": [
        {
          "internalType": "address",
          "name": "from",
          "type": "address"
        },
        {
          "internalType": "address",
          "name": "to",
          "type": "address"
        },
        {
          "internalType": "uint256",
          "name": "tokenId",
          "type": "uint256"
        },
        {
          "internalType": "bytes",
          "name": "data",
          "type": "bytes"
        }
      ],
      "name": "safeTransferFrom",
      "outputs": [],
      "stateMutability": "nonpayable",
      "type": "function"
    },
    {
      "inputs": [
        {
          "internalType": "address",
          "name": "operator",
          "type": "address"
        },
        {
          "internalType": "bool",
          "name": "approved",
          "type": "bool"
        }
      ],
      "name": "setApprovalForAll",
      "outputs": [],
      "stateMutability": "nonpayable",
      "type": "function"
    },
    {
      "inputs": [
        {
          "internalType": "bytes4",
          "name": "interfaceId",
          "type": "bytes4"
        }
      ],
      "name": "supportsInterface",
      "outputs": [
        {
          "internalType": "bool",
          "name": "",
          "type": "bool"
        }
      ],
      "stateMutability": "view",
      "type": "function"
    },
    {
      "inputs": [],
      "name": "symbol",
      "outputs": [
        {
          "internalType": "string",
          "name": "",
          "type": "string"
        }
      ],
      "stateMutability": "view",
      "type": "function"
    },
    {
      "inputs": [
        {
          "internalType": "uint256",
          "name": "tokenId",
          "type": "uint256"
        }
      ],
      "name": "tokenToURI",
      "outputs": [
        {
          "internalType": "string",
          "name": "",
          "type": "string"
        }
      ],
      "stateMutability": "view",
      "type": "function"
    },
    {
      "inputs": [
        {
          "internalType": "uint256",
          "name": "tokenId",
          "type": "uint256"
        }
      ],
      "name": "tokenURI",
      "outputs": [
        {
          "internalType": "string",
          "name": "",
          "type": "string"
        }
      ],
      "stateMutability": "view",
      "type": "function"
    },
    {
      "inputs": [
        {
          "internalType": "address",
          "name": "from",
          "type": "address"
        },
        {
          "internalType": "address",
          "name": "to",
          "type": "address"
        },
        {
          "internalType": "uint256",
          "name": "tokenId",
          "type": "uint256"
        }
      ],
      "name": "transferFrom",
      "outputs": [],
      "stateMutability": "nonpayable",
      "type": "function"
    },
    {
      "inputs": [
        {
          "internalType": "address",
          "name": "newOwner",
          "type": "address"
        }
      ],
      "name": "transferOwnership",
      "outputs": [],
      "stateMutability": "nonpayable",
      "type": "function"
    },
    {
      "inputs": [
        {
          "internalType": "bytes32",
          "name": "orgCode",
          "type": "bytes32"
        }
      ],
      "name": "unblockOrg",
      "outputs": [],
      "stateMutability": "nonpayable",
      "type": "function"
    },
    {
      "inputs": [
        {
          "internalType": "uint256",
          "name": "tokenId",
          "type": "uint256"
        },
        {
          "internalType": "string",
          "name": "newURI",
          "type": "string"
        }
      ],
      "name": "uriChanger",
      "outputs": [],
      "stateMutability": "nonpayable",
      "type": "function"
    },
    {
      "inputs": [
        {
          "internalType": "uint256",
          "name": "tokenId",
          "type": "uint256"
        }
      ],
      "name": "verify",
      "outputs": [
        {
          "internalType": "string",
          "name": "uri",
          "type": "string"
        },
        {
          "internalType": "address",
          "name": "student",
          "type": "address"
        },
        {
          "internalType": "bytes32",
          "name": "orgCode",
          "type": "bytes32"
        },
        {
          "internalType": "bool",
          "name": "revoked",
          "type": "bool"
        }
      ],
      "stateMutability": "view",
      "type": "function"
    }
  ],
  "bytecode": "0x608060405234801561001057600080fd5b50336040518060400160405280601481526020017f566572694d696e742043657274696669636174650000000000000000000000008152506040518060400160405280600481526020017f5645524900000000000000000000000000000000000000000000000000000000815250816000908161008d919061043d565b50806001908161009d919061043d565b505050600073ffffffffffffffffffffffffffffffffffffffff168173ffffffffffffffffffffffffffffffffffffffff16036101125760006040517f1e4fbdf70000000000000000000000000000000000000000000000000000000081526004016101099190610550565b60405180910390fd5b6101218161012760201b60201c565b5061056b565b6000600660009054906101000a900473ffffffffffffffffffffffffffffffffffffffff16905081600660006101000a81548173ffffffffffffffffffffffffffffffffffffffff021916908373ffffffffffffffffffffffffffffffffffffffff1602179055508173ffffffffffffffffffffffffffffffffffffffff168173ffffffffffffffffffffffffffffffffffffffff167f8be0079c531659141344cd1fd0a4f28419497f9722a3daafe3b4186f6b6457e060405160405180910390a35050565b600081519050919050565b7f4e487b7100000000000000000000000000000000000000000000000000000000600052604160045260246000fd5b7f4e487b7100000000000000000000000000000000000000000000000000000000600052602260045260246000fd5b6000600282049050600182168061026e57607f821691505b60208210810361028157610280610227565b5b50919050565b60008190508160005260206000209050919050565b60006020601f8301049050919050565b600082821b905092915050565b6000600883026102e97fffffffffffffffffffffffffffffffffffffffffffffffffffffffffffffffff826102ac565b6102f386836102ac565b95508019841693508086168417925050509392505050565b6000819050919050565b6000819050919050565b600061033a6103356103308461030b565b610315565b61030b565b9050919050565b6000819050919050565b6103548361031f565b61036861036082610341565b8484546102b9565b825550505050565b600090565b61037d610370565b61038881848461034b565b505050565b5b818110156103ac576103a1600082610375565b60018101905061038e565b5050565b601f8211156103f1576103c281610287565b6103cb8461029c565b810160208510156103da578190505b6103ee6103e68561029c565b83018261038d565b50505b505050565b600082821c905092915050565b6000610414600019846008026103f6565b1980831691505092915050565b600061042d8383610403565b9150826002028217905092915050565b610446826101ed565b67ffffffffffffffff81111561045f5761045e6101f8565b5b6104698254610256565b6104748282856103b0565b600060209050601f8311600181146104a75760008415610495578287015190505b61049f8582610421565b865550610507565b601f1984166104b586610287565b60005b828110156104dd578489015182556001820191506020850194506020810190506104b8565b868310156104fa57848901516104f6601f891682610403565b8355505b6001600288020188555050505b505050505050565b600073ffffffffffffffffffffffffffffffffffffffff82169050919050565b600061053a8261050f565b9050919050565b61054a8161052f565b82525050565b60006020820190506105656000830184610541565b92915050565b6143858061057a6000396000f3fe608060405234801561001057600080fd5b50600436106101e55760003560e01c80637bc8f4931161010f578063a3e84beb116100a2578063dbcbc27211610071578063dbcbc272146105e0578063e3566f73146105fc578063e985e9c51461062c578063f2fde38b1461065c576101e5565b8063a3e84beb14610532578063b88d4fde14610564578063c87b56dd14610580578063d34047b6146105b0576101e5565b806395d89b41116100de57806395d89b41146104c057806398c71765146104de578063a22cb465146104fa578063a257b62314610516576101e5565b80637bc8f493146104235780638753367f1461043f5780638da5cb5b14610472578063924368ce14610490576101e5565b806323b872dd1161018757806364b8cbb41161015657806364b8cbb41461039a578063663b3e22146103b657806370a08231146103e9578063715018a614610419576101e5565b806323b872dd146103025780632f6b16d71461031e57806342842e0e1461034e5780636352211e1461036a576101e5565b8063085c29f2116101c3578063085c29f214610268578063095ea7b3146102985780630c518a45146102b45780630dd476ba146102d0576101e5565b806301ffc9a7146101ea57806306fdde031461021a578063081812fc14610238575b600080fd5b61020460048036038101906101ff91906130a3565b610678565b60405161021191906130eb565b60405180910390f35b61022261075a565b60405161022f9190613196565b60405180910390f35b610252600480360381019061024d91906131ee565b6107ec565b60405161025f919061325c565b60405180910390f35b610282600480360381019061027d91906132ad565b610808565b60405161028f9190613398565b60405180910390f35b6102b260048036038101906102ad91906133e6565b610873565b005b6102ce60048036038101906102c99190613426565b610889565b005b6102ea60048036038101906102e591906131ee565b610a16565b6040516102f993929190613475565b60405180910390f35b61031c600480360381019061031791906134ac565b610c13565b005b610338600480360381019061033391906131ee565b610d15565b6040516103459190613196565b60405180910390f35b610368600480360381019061036391906134ac565b610e34565b005b610384600480360381019061037f91906131ee565b610e54565b604051610391919061325c565b60405180910390f35b6103b460048036038101906103af9190613564565b610e66565b005b6103d060048036038101906103cb91906131ee565b6110e9565b6040516103e094939291906135c4565b60405180910390f35b61040360048036038101906103fe9190613610565b6111ce565b604051610410919061364c565b60405180910390f35b610421611288565b005b61043d600480360381019061043891906132ad565b61129c565b005b610459600480360381019061045491906131ee565b61136d565b60405161046994939291906135c4565b60405180910390f35b61047a61153d565b604051610487919061325c565b60405180910390f35b6104aa60048036038101906104a59190613610565b611567565b6040516104b79190613398565b60405180910390f35b6104c86115fe565b6040516104d59190613196565b60405180910390f35b6104f860048036038101906104f391906132ad565b611690565b005b610514600480360381019061050f9190613693565b6117ae565b005b610530600480360381019061052b91906132ad565b6117c4565b005b61054c600480360381019061054791906132ad565b611895565b60405161055b939291906136d3565b60405180910390f35b61057e6004803603810190610579919061383a565b6118ec565b005b61059a600480360381019061059591906131ee565b611909565b6040516105a79190613196565b60405180910390f35b6105ca60048036038101906105c591906138bd565b611972565b6040516105d7919061364c565b60405180910390f35b6105fa60048036038101906105f591906131ee565b611d48565b005b610616600480360381019061061191906132ad565b611fa2565b60405161062391906130eb565b60405180910390f35b61064660048036038101906106419190613931565b611fc2565b60405161065391906130eb565b60405180910390f35b61067660048036038101906106719190613610565b612056565b005b60007f80ac58cd000000000000000000000000000000000000000000000000000000007bffffffffffffffffffffffffffffffffffffffffffffffffffffffff1916827bffffffffffffffffffffffffffffffffffffffffffffffffffffffff1916148061074357507f5b5e139f000000000000000000000000000000000000000000000000000000007bffffffffffffffffffffffffffffffffffffffffffffffffffffffff1916827bffffffffffffffffffffffffffffffffffffffffffffffffffffffff1916145b806107535750610752826120dc565b5b9050919050565b606060008054610769906139a0565b80601f0160208091040260200160405190810160405280929190818152602001828054610795906139a0565b80156107e25780601f106107b7576101008083540402835291602001916107e2565b820191906000526020600020905b8154815290600101906020018083116107c557829003601f168201915b5050505050905090565b60006107f782612146565b50610801826121ce565b9050919050565b6060600b600083815260200190815260200160002080548060200260200160405190810160405280929190818152602001828054801561086757602002820191906000526020600020905b815481526020019060010190808311610853575b50505050509050919050565b610885828261088061220b565b612213565b5050565b610891612225565b6008600083815260200190815260200160002060009054906101000a900460ff16156108f2576040517f08c379a00000000000000000000000000000000000000000000000000000000081526004016108e990613a1d565b60405180910390fd5b60405180606001604052808381526020018273ffffffffffffffffffffffffffffffffffffffff16815260200160001515815250600760008481526020019081526020016000206000820151816000015560208201518160010160006101000a81548173ffffffffffffffffffffffffffffffffffffffff021916908373ffffffffffffffffffffffffffffffffffffffff16021790555060408201518160010160146101000a81548160ff02191690831515021790555090505060016008600084815260200190815260200160002060006101000a81548160ff0219169083151502179055507ffac78dab179ca1da7c80a0ab625077527f9e28efdc94b49ce63694a97c8ae1e48282604051610a0a929190613a3d565b60405180910390a15050565b60008060008073ffffffffffffffffffffffffffffffffffffffff16610a3b85610e54565b73ffffffffffffffffffffffffffffffffffffffff1603610a91576040517f08c379a0000000000000000000000000000000000000000000000000000000008152600401610a8890613ab2565b60405180910390fd5b600060096000868152602001908152602001600020604051806080016040529081600082018054610ac1906139a0565b80601f0160208091040260200160405190810160405280929190818152602001828054610aed906139a0565b8015610b3a5780601f10610b0f57610100808354040283529160200191610b3a565b820191906000526020600020905b815481529060010190602001808311610b1d57829003601f168201915b505050505081526020016001820160009054906101000a900473ffffffffffffffffffffffffffffffffffffffff1673ffffffffffffffffffffffffffffffffffffffff1673ffffffffffffffffffffffffffffffffffffffff168152602001600282015481526020016003820160009054906101000a900460ff1615151515815250509050600760008260400151815260200190815260200160002060010160009054906101000a900473ffffffffffffffffffffffffffffffffffffffff1681602001518260400151935093509350509193909250565b600073ffffffffffffffffffffffffffffffffffffffff168273ffffffffffffffffffffffffffffffffffffffff1603610c855760006040517f64a0ae92000000000000000000000000000000000000000000000000000000008152600401610c7c919061325c565b60405180910390fd5b6000610c998383610c9461220b565b6122ac565b90508373ffffffffffffffffffffffffffffffffffffffff168173ffffffffffffffffffffffffffffffffffffffff1614610d0f578382826040517f64283d7b000000000000000000000000000000000000000000000000000000008152600401610d0693929190613ad2565b60405180910390fd5b50505050565b6060600073ffffffffffffffffffffffffffffffffffffffff16610d3883610e54565b73ffffffffffffffffffffffffffffffffffffffff1603610d8e576040517f08c379a0000000000000000000000000000000000000000000000000000000008152600401610d8590613ab2565b60405180910390fd5b600960008381526020019081526020016000206000018054610daf906139a0565b80601f0160208091040260200160405190810160405280929190818152602001828054610ddb906139a0565b8015610e285780601f10610dfd57610100808354040283529160200191610e28565b820191906000526020600020905b815481529060010190602001808311610e0b57829003601f168201915b50505050509050919050565b610e4f838383604051806020016040528060008152506118ec565b505050565b6000610e5f82612146565b9050919050565b600073ffffffffffffffffffffffffffffffffffffffff16610e8784610e54565b73ffffffffffffffffffffffffffffffffffffffff1603610edd576040517f08c379a0000000000000000000000000000000000000000000000000000000008152600401610ed490613ab2565b60405180910390fd5b6000600960008581526020019081526020016000209050600860008260020154815260200190815260200160002060009054906101000a900460ff16610f58576040517f08c379a0000000000000000000000000000000000000000000000000000000008152600401610f4f90613b55565b60405180910390fd5b3373ffffffffffffffffffffffffffffffffffffffff16600760008360020154815260200190815260200160002060010160009054906101000a900473ffffffffffffffffffffffffffffffffffffffff1673ffffffffffffffffffffffffffffffffffffffff1614611000576040517f08c379a0000000000000000000000000000000000000000000000000000000008152600401610ff790613bc1565b60405180910390fd5b6000816000018054611011906139a0565b80601f016020809104026020016040519081016040528092919081815260200182805461103d906139a0565b801561108a5780601f1061105f5761010080835404028352916020019161108a565b820191906000526020600020905b81548152906001019060200180831161106d57829003601f168201915b5050505050905083838360000191826110a4929190613d98565b507f5ecfebe1fb54f76998c2b369df1b6d449aa3e6464c2af38d819aa1bc68667888858286866040516110da9493929190613e95565b60405180910390a15050505050565b600960205280600052604060002060009150905080600001805461110c906139a0565b80601f0160208091040260200160405190810160405280929190818152602001828054611138906139a0565b80156111855780601f1061115a57610100808354040283529160200191611185565b820191906000526020600020905b81548152906001019060200180831161116857829003601f168201915b5050505050908060010160009054906101000a900473ffffffffffffffffffffffffffffffffffffffff16908060020154908060030160009054906101000a900460ff16905084565b60008073ffffffffffffffffffffffffffffffffffffffff168273ffffffffffffffffffffffffffffffffffffffff16036112415760006040517f89c62b64000000000000000000000000000000000000000000000000000000008152600401611238919061325c565b60405180910390fd5b600360008373ffffffffffffffffffffffffffffffffffffffff1673ffffffffffffffffffffffffffffffffffffffff168152602001908152602001600020549050919050565b611290612225565b61129a6000612379565b565b6112a4612225565b6008600082815260200190815260200160002060009054906101000a900460ff16611304576040517f08c379a00000000000000000000000000000000000000000000000000000000081526004016112fb90613b55565b60405180910390fd5b60006007600083815260200190815260200160002060010160146101000a81548160ff0219169083151502179055507fff2b24bfea575a92abb1fbf9773a490df08a5021d9b977a710e0b1d914c68204816040516113629190613edc565b60405180910390a150565b606060008060008073ffffffffffffffffffffffffffffffffffffffff1661139486610e54565b73ffffffffffffffffffffffffffffffffffffffff16036113ea576040517f08c379a00000000000000000000000000000000000000000000000000000000081526004016113e190613ab2565b60405180910390fd5b60006009600087815260200190815260200160002060405180608001604052908160008201805461141a906139a0565b80601f0160208091040260200160405190810160405280929190818152602001828054611446906139a0565b80156114935780601f1061146857610100808354040283529160200191611493565b820191906000526020600020905b81548152906001019060200180831161147657829003601f168201915b505050505081526020016001820160009054906101000a900473ffffffffffffffffffffffffffffffffffffffff1673ffffffffffffffffffffffffffffffffffffffff1673ffffffffffffffffffffffffffffffffffffffff168152602001600282015481526020016003820160009054906101000a900460ff161515151581525050905080600001518160200151826040015183606001519450945094509450509193509193565b6000600660009054906101000a900473ffffffffffffffffffffffffffffffffffffffff16905090565b6060600a60008373ffffffffffffffffffffffffffffffffffffffff1673ffffffffffffffffffffffffffffffffffffffff1681526020019081526020016000208054806020026020016040519081016040528092919081815260200182805480156115f257602002820191906000526020600020905b8154815260200190600101908083116115de575b50505050509050919050565b60606001805461160d906139a0565b80601f0160208091040260200160405190810160405280929190818152602001828054611639906139a0565b80156116865780601f1061165b57610100808354040283529160200191611686565b820191906000526020600020905b81548152906001019060200180831161166957829003601f168201915b5050505050905090565b611698612225565b6008600082815260200190815260200160002060009054906101000a900460ff166116f8576040517f08c379a00000000000000000000000000000000000000000000000000000000081526004016116ef90613b55565b60405180910390fd5b600760008281526020019081526020016000206000808201600090556001820160006101000a81549073ffffffffffffffffffffffffffffffffffffffff02191690556001820160146101000a81549060ff021916905550506008600082815260200190815260200160002060006101000a81549060ff02191690557f8dd1462a818233574cc2dd80fa051f7aceb0962bbb764e914ad1b8090b81834f816040516117a39190613edc565b60405180910390a150565b6117c06117b961220b565b838361243f565b5050565b6117cc612225565b6008600082815260200190815260200160002060009054906101000a900460ff1661182c576040517f08c379a000000000000000000000000000000000000000000000000000000000815260040161182390613b55565b60405180910390fd5b60016007600083815260200190815260200160002060010160146101000a81548160ff0219169083151502179055507f1ee5fe0b80273a09ed51352019565f72b8680f47e01ed14037179639e2e4faa68160405161188a9190613edc565b60405180910390a150565b60076020528060005260406000206000915090508060000154908060010160009054906101000a900473ffffffffffffffffffffffffffffffffffffffff16908060010160149054906101000a900460ff16905083565b6118f7848484610c13565b611903848484846125ae565b50505050565b606061191482612146565b50600061191f612765565b9050600081511161193f576040518060200160405280600081525061196a565b806119498461277c565b60405160200161195a929190613f33565b6040516020818303038152906040525b915050919050565b6000816008600082815260200190815260200160002060009054906101000a900460ff166119d5576040517f08c379a00000000000000000000000000000000000000000000000000000000081526004016119cc90613b55565b60405180910390fd5b3373ffffffffffffffffffffffffffffffffffffffff166007600083815260200190815260200160002060010160009054906101000a900473ffffffffffffffffffffffffffffffffffffffff1673ffffffffffffffffffffffffffffffffffffffff1614611a79576040517f08c379a0000000000000000000000000000000000000000000000000000000008152600401611a7090613bc1565b60405180910390fd5b6007600082815260200190815260200160002060010160149054906101000a900460ff1615611add576040517f08c379a0000000000000000000000000000000000000000000000000000000008152600401611ad490613fa3565b60405180910390fd5b6000600c6000815480929190611af290613ff2565b919050559050611b02878261284a565b604051806080016040528087878080601f016020809104026020016040519081016040528093929190818152602001838380828437600081840152601f19601f8201169050808301925050505050505081526020018873ffffffffffffffffffffffffffffffffffffffff16815260200185815260200160001515815250600960008381526020019081526020016000206000820151816000019081611ba8919061403a565b5060208201518160010160006101000a81548173ffffffffffffffffffffffffffffffffffffffff021916908373ffffffffffffffffffffffffffffffffffffffff1602179055506040820151816002015560608201518160030160006101000a81548160ff021916908315150217905550905050600a60008873ffffffffffffffffffffffffffffffffffffffff1673ffffffffffffffffffffffffffffffffffffffff168152602001908152602001600020819080600181540180825580915050600190039060005260206000200160009091909190915055600b60008581526020019081526020016000208190806001815401808255809150506001900390600052602060002001600090919091909150557f7deb033804d58ed4870bb66f89687567163997c407051811fa979f0f45d0427a8188888888604051611cf495949392919061410c565b60405180910390a17f544ca774eb1f63b59775c9a9ce5b6ce6cff003be79f2a198d1cbe72ce42296ff8188868989604051611d3395949392919061415a565b60405180910390a18092505050949350505050565b600073ffffffffffffffffffffffffffffffffffffffff16611d6982610e54565b73ffffffffffffffffffffffffffffffffffffffff1603611dbf576040517f08c379a0000000000000000000000000000000000000000000000000000000008152600401611db690613ab2565b60405180910390fd5b6000600960008381526020019081526020016000209050600860008260020154815260200190815260200160002060009054906101000a900460ff16611e3a576040517f08c379a0000000000000000000000000000000000000000000000000000000008152600401611e3190613b55565b60405180910390fd5b3373ffffffffffffffffffffffffffffffffffffffff16600760008360020154815260200190815260200160002060010160009054906101000a900473ffffffffffffffffffffffffffffffffffffffff1673ffffffffffffffffffffffffffffffffffffffff1614611ee2576040517f08c379a0000000000000000000000000000000000000000000000000000000008152600401611ed990613bc1565b60405180910390fd5b600760008260020154815260200190815260200160002060010160149054906101000a900460ff1615611f4a576040517f08c379a0000000000000000000000000000000000000000000000000000000008152600401611f4190613fa3565b60405180910390fd5b60018160030160006101000a81548160ff0219169083151502179055507f3604c0315cff7b06a65a15b5fe246cfb343f507a926cbd09aaf9c3cce88c9c1882604051611f96919061364c565b60405180910390a15050565b60086020528060005260406000206000915054906101000a900460ff1681565b6000600560008473ffffffffffffffffffffffffffffffffffffffff1673ffffffffffffffffffffffffffffffffffffffff16815260200190815260200160002060008373ffffffffffffffffffffffffffffffffffffffff1673ffffffffffffffffffffffffffffffffffffffff16815260200190815260200160002060009054906101000a900460ff16905092915050565b61205e612225565b600073ffffffffffffffffffffffffffffffffffffffff168173ffffffffffffffffffffffffffffffffffffffff16036120d05760006040517f1e4fbdf70000000000000000000000000000000000000000000000000000000081526004016120c7919061325c565b60405180910390fd5b6120d981612379565b50565b60007f01ffc9a7000000000000000000000000000000000000000000000000000000007bffffffffffffffffffffffffffffffffffffffffffffffffffffffff1916827bffffffffffffffffffffffffffffffffffffffffffffffffffffffff1916149050919050565b60008061215283612943565b9050600073ffffffffffffffffffffffffffffffffffffffff168173ffffffffffffffffffffffffffffffffffffffff16036121c557826040517f7e2732890000000000000000000000000000000000000000000000000000000081526004016121bc919061364c565b60405180910390fd5b80915050919050565b60006004600083815260200190815260200160002060009054906101000a900473ffffffffffffffffffffffffffffffffffffffff169050919050565b600033905090565b6122208383836001612980565b505050565b61222d61220b565b73ffffffffffffffffffffffffffffffffffffffff1661224b61153d565b73ffffffffffffffffffffffffffffffffffffffff16146122aa5761226e61220b565b6040517f118cdaa70000000000000000000000000000000000000000000000000000000081526004016122a1919061325c565b60405180910390fd5b565b6000806122b884612943565b9050600073ffffffffffffffffffffffffffffffffffffffff168173ffffffffffffffffffffffffffffffffffffffff16141580156123245750600073ffffffffffffffffffffffffffffffffffffffff168573ffffffffffffffffffffffffffffffffffffffff1614155b15612364576040517f08c379a000000000000000000000000000000000000000000000000000000000815260040161235b906141f4565b60405180910390fd5b61236f858585612b45565b9150509392505050565b6000600660009054906101000a900473ffffffffffffffffffffffffffffffffffffffff16905081600660006101000a81548173ffffffffffffffffffffffffffffffffffffffff021916908373ffffffffffffffffffffffffffffffffffffffff1602179055508173ffffffffffffffffffffffffffffffffffffffff168173ffffffffffffffffffffffffffffffffffffffff167f8be0079c531659141344cd1fd0a4f28419497f9722a3daafe3b4186f6b6457e060405160405180910390a35050565b600073ffffffffffffffffffffffffffffffffffffffff168273ffffffffffffffffffffffffffffffffffffffff16036124b057816040517f5b08ba180000000000000000000000000000000000000000000000000000000081526004016124a7919061325c565b60405180910390fd5b80600560008573ffffffffffffffffffffffffffffffffffffffff1673ffffffffffffffffffffffffffffffffffffffff16815260200190815260200160002060008473ffffffffffffffffffffffffffffffffffffffff1673ffffffffffffffffffffffffffffffffffffffff16815260200190815260200160002060006101000a81548160ff0219169083151502179055508173ffffffffffffffffffffffffffffffffffffffff168373ffffffffffffffffffffffffffffffffffffffff167f17307eab39ab6107e8899845ad3d59bd9653f200f220920489ca2b5937696c31836040516125a191906130eb565b60405180910390a3505050565b60008373ffffffffffffffffffffffffffffffffffffffff163b111561275f578273ffffffffffffffffffffffffffffffffffffffff1663150b7a026125f261220b565b8685856040518563ffffffff1660e01b81526004016126149493929190614269565b6020604051808303816000875af192505050801561265057506040513d601f19601f8201168201806040525081019061264d91906142ca565b60015b6126d4573d8060008114612680576040519150601f19603f3d011682016040523d82523d6000602084013e612685565b606091505b5060008151036126cc57836040517f64a0ae920000000000000000000000000000000000000000000000000000000081526004016126c3919061325c565b60405180910390fd5b805181602001fd5b63150b7a0260e01b7bffffffffffffffffffffffffffffffffffffffffffffffffffffffff1916817bffffffffffffffffffffffffffffffffffffffffffffffffffffffff19161461275d57836040517f64a0ae92000000000000000000000000000000000000000000000000000000008152600401612754919061325c565b60405180910390fd5b505b50505050565b606060405180602001604052806000815250905090565b60606000600161278b84612d5f565b01905060008167ffffffffffffffff8111156127aa576127a961370f565b5b6040519080825280601f01601f1916602001820160405280156127dc5781602001600182028036833780820191505090505b509050600082602001820190505b60011561283f578080600190039150507f3031323334353637383961626364656600000000000000000000000000000000600a86061a8153600a8581612833576128326142f7565b5b049450600085036127ea575b819350505050919050565b600073ffffffffffffffffffffffffffffffffffffffff168273ffffffffffffffffffffffffffffffffffffffff16036128bc5760006040517f64a0ae920000000000000000000000000000000000000000000000000000000081526004016128b3919061325c565b60405180910390fd5b60006128ca838360006122ac565b9050600073ffffffffffffffffffffffffffffffffffffffff168173ffffffffffffffffffffffffffffffffffffffff161461293e5760006040517f73c6ac6e000000000000000000000000000000000000000000000000000000008152600401612935919061325c565b60405180910390fd5b505050565b60006002600083815260200190815260200160002060009054906101000a900473ffffffffffffffffffffffffffffffffffffffff169050919050565b80806129b95750600073ffffffffffffffffffffffffffffffffffffffff168273ffffffffffffffffffffffffffffffffffffffff1614155b15612aed5760006129c984612146565b9050600073ffffffffffffffffffffffffffffffffffffffff168373ffffffffffffffffffffffffffffffffffffffff1614158015612a3457508273ffffffffffffffffffffffffffffffffffffffff168173ffffffffffffffffffffffffffffffffffffffff1614155b8015612a475750612a458184611fc2565b155b15612a8957826040517fa9fbf51f000000000000000000000000000000000000000000000000000000008152600401612a80919061325c565b60405180910390fd5b8115612aeb57838573ffffffffffffffffffffffffffffffffffffffff168273ffffffffffffffffffffffffffffffffffffffff167f8c5be1e5ebec7d5bd14f71427d1e84f3dd0314c0f7b2291e5b200ac8c7c3b92560405160405180910390a45b505b836004600085815260200190815260200160002060006101000a81548173ffffffffffffffffffffffffffffffffffffffff021916908373ffffffffffffffffffffffffffffffffffffffff16021790555050505050565b600080612b5184612943565b9050600073ffffffffffffffffffffffffffffffffffffffff168373ffffffffffffffffffffffffffffffffffffffff1614612b9357612b92818486612eb2565b5b600073ffffffffffffffffffffffffffffffffffffffff168173ffffffffffffffffffffffffffffffffffffffff1614612c2457612bd5600085600080612980565b6001600360008373ffffffffffffffffffffffffffffffffffffffff1673ffffffffffffffffffffffffffffffffffffffff168152602001908152602001600020600082825403925050819055505b600073ffffffffffffffffffffffffffffffffffffffff168573ffffffffffffffffffffffffffffffffffffffff1614612ca7576001600360008773ffffffffffffffffffffffffffffffffffffffff1673ffffffffffffffffffffffffffffffffffffffff168152602001908152602001600020600082825401925050819055505b846002600086815260200190815260200160002060006101000a81548173ffffffffffffffffffffffffffffffffffffffff021916908373ffffffffffffffffffffffffffffffffffffffff160217905550838573ffffffffffffffffffffffffffffffffffffffff168273ffffffffffffffffffffffffffffffffffffffff167fddf252ad1be2c89b69c2b068fc378daa952ba7f163c4a11628f55a4df523b3ef60405160405180910390a4809150509392505050565b600080600090507a184f03e93ff9f4daa797ed6e38ed64bf6a1f0100000000000000008310612dbd577a184f03e93ff9f4daa797ed6e38ed64bf6a1f0100000000000000008381612db357612db26142f7565b5b0492506040810190505b6d04ee2d6d415b85acef81000000008310612dfa576d04ee2d6d415b85acef81000000008381612df057612def6142f7565b5b0492506020810190505b662386f26fc100008310612e2957662386f26fc100008381612e1f57612e1e6142f7565b5b0492506010810190505b6305f5e1008310612e52576305f5e1008381612e4857612e476142f7565b5b0492506008810190505b6127108310612e77576127108381612e6d57612e6c6142f7565b5b0492506004810190505b60648310612e9a5760648381612e9057612e8f6142f7565b5b0492506002810190505b600a8310612ea9576001810190505b80915050919050565b612ebd838383612f76565b612f7157600073ffffffffffffffffffffffffffffffffffffffff168373ffffffffffffffffffffffffffffffffffffffff1603612f3257806040517f7e273289000000000000000000000000000000000000000000000000000000008152600401612f29919061364c565b60405180910390fd5b81816040517f177e802f000000000000000000000000000000000000000000000000000000008152600401612f68929190614326565b60405180910390fd5b505050565b60008073ffffffffffffffffffffffffffffffffffffffff168373ffffffffffffffffffffffffffffffffffffffff161415801561302e57508273ffffffffffffffffffffffffffffffffffffffff168473ffffffffffffffffffffffffffffffffffffffff161480612fef5750612fee8484611fc2565b5b8061302d57508273ffffffffffffffffffffffffffffffffffffffff16613015836121ce565b73ffffffffffffffffffffffffffffffffffffffff16145b5b90509392505050565b6000604051905090565b600080fd5b600080fd5b60007fffffffff0000000000000000000000000000000000000000000000000000000082169050919050565b6130808161304b565b811461308b57600080fd5b50565b60008135905061309d81613077565b92915050565b6000602082840312156130b9576130b8613041565b5b60006130c78482850161308e565b91505092915050565b60008115159050919050565b6130e5816130d0565b82525050565b600060208201905061310060008301846130dc565b92915050565b600081519050919050565b600082825260208201905092915050565b60005b83811015613140578082015181840152602081019050613125565b60008484015250505050565b6000601f19601f8301169050919050565b600061316882613106565b6131728185613111565b9350613182818560208601613122565b61318b8161314c565b840191505092915050565b600060208201905081810360008301526131b0818461315d565b905092915050565b6000819050919050565b6131cb816131b8565b81146131d657600080fd5b50565b6000813590506131e8816131c2565b92915050565b60006020828403121561320457613203613041565b5b6000613212848285016131d9565b91505092915050565b600073ffffffffffffffffffffffffffffffffffffffff82169050919050565b60006132468261321b565b9050919050565b6132568161323b565b82525050565b6000602082019050613271600083018461324d565b92915050565b6000819050919050565b61328a81613277565b811461329557600080fd5b50565b6000813590506132a781613281565b92915050565b6000602082840312156132c3576132c2613041565b5b60006132d184828501613298565b91505092915050565b600081519050919050565b600082825260208201905092915050565b6000819050602082019050919050565b61330f816131b8565b82525050565b60006133218383613306565b60208301905092915050565b6000602082019050919050565b6000613345826132da565b61334f81856132e5565b935061335a836132f6565b8060005b8381101561338b5781516133728882613315565b975061337d8361332d565b92505060018101905061335e565b5085935050505092915050565b600060208201905081810360008301526133b2818461333a565b905092915050565b6133c38161323b565b81146133ce57600080fd5b50565b6000813590506133e0816133ba565b92915050565b600080604083850312156133fd576133fc613041565b5b600061340b858286016133d1565b925050602061341c858286016131d9565b9150509250929050565b6000806040838503121561343d5761343c613041565b5b600061344b85828601613298565b925050602061345c858286016133d1565b9150509250929050565b61346f81613277565b82525050565b600060608201905061348a600083018661324d565b613497602083018561324d565b6134a46040830184613466565b949350505050565b6000806000606084860312156134c5576134c4613041565b5b60006134d3868287016133d1565b93505060206134e4868287016133d1565b92505060406134f5868287016131d9565b9150509250925092565b600080fd5b600080fd5b600080fd5b60008083601f840112613524576135236134ff565b5b8235905067ffffffffffffffff81111561354157613540613504565b5b60208301915083600182028301111561355d5761355c613509565b5b9250929050565b60008060006040848603121561357d5761357c613041565b5b600061358b868287016131d9565b935050602084013567ffffffffffffffff8111156135ac576135ab613046565b5b6135b88682870161350e565b92509250509250925092565b600060808201905081810360008301526135de818761315d565b90506135ed602083018661324d565b6135fa6040830185613466565b61360760608301846130dc565b95945050505050565b60006020828403121561362657613625613041565b5b6000613634848285016133d1565b91505092915050565b613646816131b8565b82525050565b6000602082019050613661600083018461363d565b92915050565b613670816130d0565b811461367b57600080fd5b50565b60008135905061368d81613667565b92915050565b600080604083850312156136aa576136a9613041565b5b60006136b8858286016133d1565b92505060206136c98582860161367e565b9150509250929050565b60006060820190506136e86000830186613466565b6136f5602083018561324d565b61370260408301846130dc565b949350505050565b600080fd5b7f4e487b7100000000000000000000000000000000000000000000000000000000600052604160045260246000fd5b6137478261314c565b810181811067ffffffffffffffff821117156137665761376561370f565b5b80604052505050565b6000613779613037565b9050613785828261373e565b919050565b600067ffffffffffffffff8211156137a5576137a461370f565b5b6137ae8261314c565b9050602081019050919050565b82818337600083830152505050565b60006137dd6137d88461378a565b61376f565b9050828152602081018484840111156137f9576137f861370a565b5b6138048482856137bb565b509392505050565b600082601f830112613821576138206134ff565b5b81356138318482602086016137ca565b91505092915050565b6000806000806080858703121561385457613853613041565b5b6000613862878288016133d1565b9450506020613873878288016133d1565b9350506040613884878288016131d9565b925050606085013567ffffffffffffffff8111156138a5576138a4613046565b5b6138b18782880161380c565b91505092959194509250565b600080600080606085870312156138d7576138d6613041565b5b60006138e5878288016133d1565b945050602085013567ffffffffffffffff81111561390657613905613046565b5b6139128782880161350e565b9350935050604061392587828801613298565b91505092959194509250565b6000806040838503121561394857613947613041565b5b6000613956858286016133d1565b9250506020613967858286016133d1565b9150509250929050565b7f4e487b7100000000000000000000000000000000000000000000000000000000600052602260045260246000fd5b600060028204905060018216806139b857607f821691505b6020821081036139cb576139ca613971565b5b50919050565b7f4f726720616c7265616479206578697374730000000000000000000000000000600082015250565b6000613a07601283613111565b9150613a12826139d1565b602082019050919050565b60006020820190508181036000830152613a36816139fa565b9050919050565b6000604082019050613a526000830185613466565b613a5f602083018461324d565b9392505050565b7f546f6b656e20646f6573206e6f74206578697374000000000000000000000000600082015250565b6000613a9c601483613111565b9150613aa782613a66565b602082019050919050565b60006020820190508181036000830152613acb81613a8f565b9050919050565b6000606082019050613ae7600083018661324d565b613af4602083018561363d565b613b01604083018461324d565b949350505050565b7f4f726720646f6573206e6f742065786973740000000000000000000000000000600082015250565b6000613b3f601283613111565b9150613b4a82613b09565b602082019050919050565b60006020820190508181036000830152613b6e81613b32565b9050919050565b7f4e6f7420617574686f72697a6564000000000000000000000000000000000000600082015250565b6000613bab600e83613111565b9150613bb682613b75565b602082019050919050565b60006020820190508181036000830152613bda81613b9e565b9050919050565b600082905092915050565b60008190508160005260206000209050919050565b60006020601f8301049050919050565b600082821b905092915050565b600060088302613c4e7fffffffffffffffffffffffffffffffffffffffffffffffffffffffffffffffff82613c11565b613c588683613c11565b95508019841693508086168417925050509392505050565b6000819050919050565b6000613c95613c90613c8b846131b8565b613c70565b6131b8565b9050919050565b6000819050919050565b613caf83613c7a565b613cc3613cbb82613c9c565b848454613c1e565b825550505050565b600090565b613cd8613ccb565b613ce3818484613ca6565b505050565b5b81811015613d0757613cfc600082613cd0565b600181019050613ce9565b5050565b601f821115613d4c57613d1d81613bec565b613d2684613c01565b81016020851015613d35578190505b613d49613d4185613c01565b830182613ce8565b50505b505050565b600082821c905092915050565b6000613d6f60001984600802613d51565b1980831691505092915050565b6000613d888383613d5e565b9150826002028217905092915050565b613da28383613be1565b67ffffffffffffffff811115613dbb57613dba61370f565b5b613dc582546139a0565b613dd0828285613d0b565b6000601f831160018114613dff5760008415613ded578287013590505b613df78582613d7c565b865550613e5f565b601f198416613e0d86613bec565b60005b82811015613e3557848901358255600182019150602085019450602081019050613e10565b86831015613e525784890135613e4e601f891682613d5e565b8355505b6001600288020188555050505b50505050505050565b6000613e748385613111565b9350613e818385846137bb565b613e8a8361314c565b840190509392505050565b6000606082019050613eaa600083018761363d565b8181036020830152613ebc818661315d565b90508181036040830152613ed1818486613e68565b905095945050505050565b6000602082019050613ef16000830184613466565b92915050565b600081905092915050565b6000613f0d82613106565b613f178185613ef7565b9350613f27818560208601613122565b80840191505092915050565b6000613f3f8285613f02565b9150613f4b8284613f02565b91508190509392505050565b7f4f726720697320626c6f636b6564000000000000000000000000000000000000600082015250565b6000613f8d600e83613111565b9150613f9882613f57565b602082019050919050565b60006020820190508181036000830152613fbc81613f80565b9050919050565b7f4e487b7100000000000000000000000000000000000000000000000000000000600052601160045260246000fd5b6000613ffd826131b8565b91507fffffffffffffffffffffffffffffffffffffffffffffffffffffffffffffffff820361402f5761402e613fc3565b5b600182019050919050565b61404382613106565b67ffffffffffffffff81111561405c5761405b61370f565b5b61406682546139a0565b614071828285613d0b565b600060209050601f8311600181146140a45760008415614092578287015190505b61409c8582613d7c565b865550614104565b601f1984166140b286613bec565b60005b828110156140da578489015182556001820191506020850194506020810190506140b5565b868310156140f757848901516140f3601f891682613d5e565b8355505b6001600288020188555050505b505050505050565b6000608082019050614121600083018861363d565b61412e602083018761324d565b8181036040830152614141818587613e68565b90506141506060830184613466565b9695505050505050565b600060808201905061416f600083018861363d565b61417c602083018761324d565b6141896040830186613466565b818103606083015261419c818486613e68565b90509695505050505050565b7f536f756c626f756e643a207472616e7366657273206e6f7420616c6c6f776564600082015250565b60006141de602083613111565b91506141e9826141a8565b602082019050919050565b6000602082019050818103600083015261420d816141d1565b9050919050565b600081519050919050565b600082825260208201905092915050565b600061423b82614214565b614245818561421f565b9350614255818560208601613122565b61425e8161314c565b840191505092915050565b600060808201905061427e600083018761324d565b61428b602083018661324d565b614298604083018561363d565b81810360608301526142aa8184614230565b905095945050505050565b6000815190506142c481613077565b92915050565b6000602082840312156142e0576142df613041565b5b60006142ee848285016142b5565b91505092915050565b7f4e487b7100000000000000000000000000000000000000000000000000000000600052601260045260246000fd5b600060408201905061433b600083018561324d565b614348602083018461363d565b939250505056fea2646970667358221220a9a4117dba698c3be3e88bc3e89301d7a032df6109ac8ff75f1462e0efd58acb64736f6c634300081c0033",
  "linkReferences": {},
  "deployedLinkReferences": {}
}