{
  "_format": "hh-sol-artifact-1",
  "contractName": "VeriMint",
  "sourceName": "contracts/VeriMint.sol",
  "abi": [
    {
      "inputs": [],
      "stateMutability": "nonpayable",
      "type": "constructor"
    },
    {
      "inputs": [
        {
          "internalType": "address",
          "name": "sender",
          "type": "address"
        },
        {
          "internalType": "uint256",
          "name": "tokenId",
          "type": "uint256"
        },
        {
          "internalType": "address",
          "name": "owner",
          "type": "address"
        }
      ],
      "name": "ERC721IncorrectOwner",
      "type": "error"
    },
    {
      "inputs": [
        {
          "internalType": "address",
          "name": "operator",
          "type": "address"
        },
        {
          "internalType": "uint256",
          "name": "tokenId",
          "type": "uint256"
        }
      ],
      "name": "ERC721InsufficientApproval",
      "type": "error"
    },
    {
      "inputs": [
        {
          "internalType": "address",
          "name": "approver",
          "type": "address"
        }
      ],
      "name": "ERC721InvalidApprover",
      "type": "error"
    },
    {
      "inputs": [
        {
          "internalType": "address",
          "name": "operator",
          "type": "address"
        }
      ],
      "name": "ERC721InvalidOperator",
      "type": "error"
    },
    {
      "inputs": [
        {
          "internalType": "address",
          "name": "owner",
          "type": "address"
        }
      ],
      "name": "ERC721InvalidOwner",
      "type": "error"
    },
    {
      "inputs": [
        {
          "internalType": "address",
          "name": "receiver",
          "type": "address"
        }
      ],
      "name": "ERC721InvalidReceiver",
      "type": "error"
    },
    {
      "inputs": [
        {
          "internalType": "address",
          "name": "sender",
          "type": "address"
        }
      ],
      "name": "ERC721InvalidSender",
      "type": "error"
    },
    {
      "inputs": [
        {
          "internalType": "uint256",
          "name": "tokenId",
          "type": "uint256"
        }
      ],
      "name": "ERC721NonexistentToken",
      "type": "error"
    },
    {
      "inputs": [
        {
          "internalType": "address",
          "name": "owner",
          "type": "address"
        }
      ],
      "name": "OwnableInvalidOwner",
      "type": "error"
    },
    {
      "inputs": [
        {
          "internalType": "address",
          "name": "account",
          "type": "address"
        }
      ],
      "name": "OwnableUnauthorizedAccount",
      "type": "error"
    },
    {
      "anonymous": false,
      "inputs": [
        {
          "indexed": true,
          "internalType": "address",
          "name": "owner",
          "type": "address"
        },
        {
          "indexed": true,
          "internalType": "address",
          "name": "approved",
          "type": "address"
        },
        {
          "indexed": true,
          "internalType": "uint256",
          "name": "tokenId",
          "type": "uint256"
        }
      ],
      "name": "Approval",
      "type": "event"
    },
    {
      "anonymous": false,
      "inputs": [
        {
          "indexed": true,
          "internalType": "address",
          "name": "owner",
          "type": "address"
        },
        {
          "indexed": true,
          "internalType": "address",
          "name": "operator",
          "type": "address"
        },
        {
          "indexed": false,
          "internalType": "bool",
          "name": "approved",
          "type": "bool"
        }
      ],
      "name": "ApprovalForAll",
      "type": "event"
    },
    {
      "anonymous": false,
      "inputs": [
        {
          "indexed": false,
          "internalType": "uint256",
          "name": "tokenId",
          "type": "uint256"
        },
        {
          "indexed": false,
          "internalType": "address",
          "name": "student",
          "type": "address"
        },
        {
          "indexed": false,
          "internalType": "string",
          "name": "uri",
          "type": "string"
        },
        {
          "indexed": false,
          "internalType": "bytes32",
          "name": "orgCode",
          "type": "bytes32"
        }
      ],
      "name": "CertMinted",
      "type": "event"
    },
    {
      "anonymous": false,
      "inputs": [
        {
          "indexed": false,
          "internalType": "bytes32",
          "name": "orgCode",
          "type": "bytes32"
        },
        {
          "indexed": false,
          "internalType": "address",
          "name": "addr",
          "type": "address"
        }
      ],
      "name": "OrgAdded",
      "type": "event"
    },
    {
      "anonymous": false,
      "inputs": [
        {
          "indexed": false,
          "internalType": "bytes32",
          "name": "orgCode",
          "type": "bytes32"
        }
      ],
      "name": "OrgRemoved",
      "type": "event"
    },
    {
      "anonymous": false,
      "inputs": [
        {
          "indexed": true,
          "internalType": "address",
          "name": "previousOwner",
          "type": "address"
        },
        {
          "indexed": true,
          "internalType": "address",
          "name": "newOwner",
          "type": "address"
        }
      ],
      "name": "OwnershipTransferred",
      "type": "event"
    },
    {
      "anonymous": false,
      "inputs": [
        {
          "indexed": true,
          "internalType": "address",
          "name": "from",
          "type": "address"
        },
        {
          "indexed": true,
          "internalType": "address",
          "name": "to",
          "type": "address"
        },
        {
          "indexed": true,
          "internalType": "uint256",
          "name": "tokenId",
          "type": "uint256"
        }
      ],
      "name": "Transfer",
      "type": "event"
    },
    {
      "anonymous": false,
      "inputs": [
        {
          "indexed": false,
          "internalType": "uint256",
          "name": "tokenId",
          "type": "uint256"
        },
        {
          "indexed": false,
          "internalType": "string",
          "name": "newURI",
          "type": "string"
        }
      ],
      "name": "URIChanged",
      "type": "event"
    },
    {
      "inputs": [
        {
          "internalType": "bytes32",
          "name": "orgCode",
          "type": "bytes32"
        },
        {
          "internalType": "address",
          "name": "addr",
          "type": "address"
        }
      ],
      "name": "addOrg",
      "outputs": [],
      "stateMutability": "nonpayable",
      "type": "function"
    },
    {
      "inputs": [
        {
          "internalType": "address",
          "name": "to",
          "type": "address"
        },
        {
          "internalType": "uint256",
          "name": "tokenId",
          "type": "uint256"
        }
      ],
      "name": "approve",
      "outputs": [],
      "stateMutability": "nonpayable",
      "type": "function"
    },
    {
      "inputs": [
        {
          "internalType": "address",
          "name": "owner",
          "type": "address"
        }
      ],
      "name": "balanceOf",
      "outputs": [
        {
          "internalType": "uint256",
          "name": "",
          "type": "uint256"
        }
      ],
      "stateMutability": "view",
      "type": "function"
    },
    {
      "inputs": [
        {
          "internalType": "uint256",
          "name": "",
          "type": "uint256"
        }
      ],
      "name": "certificates",
      "outputs": [
        {
          "internalType": "string",
          "name": "uri",
          "type": "string"
        },
        {
          "internalType": "address",
          "name": "studentAddr",
          "type": "address"
        },
        {
          "internalType": "bytes32",
          "name": "orgCode",
          "type": "bytes32"
        }
      ],
      "stateMutability": "view",
      "type": "function"
    },
    {
      "inputs": [
        {
          "internalType": "uint256",
          "name": "tokenId",
          "type": "uint256"
        }
      ],
      "name": "getApproved",
      "outputs": [
        {
          "internalType": "address",
          "name": "",
          "type": "address"
        }
      ],
      "stateMutability": "view",
      "type": "function"
    },
    {
      "inputs": [
        {
          "internalType": "address",
          "name": "owner",
          "type": "address"
        },
        {
          "internalType": "address",
          "name": "operator",
          "type": "address"
        }
      ],
      "name": "isApprovedForAll",
      "outputs": [
        {
          "internalType": "bool",
          "name": "",
          "type": "bool"
        }
      ],
      "stateMutability": "view",
      "type": "function"
    },
    {
      "inputs": [
        {
          "internalType": "address",
          "name": "student",
          "type": "address"
        },
        {
          "internalType": "string",
          "name": "uri",
          "type": "string"
        },
        {
          "internalType": "bytes32",
          "name": "orgCode",
          "type": "bytes32"
        }
      ],
      "name": "mint",
      "outputs": [
        {
          "internalType": "uint256",
          "name": "",
          "type": "uint256"
        }
      ],
      "stateMutability": "nonpayable",
      "type": "function"
    },
    {
      "inputs": [],
      "name": "name",
      "outputs": [
        {
          "internalType": "string",
          "name": "",
          "type": "string"
        }
      ],
      "stateMutability": "view",
      "type": "function"
    },
    {
      "inputs": [
        {
          "internalType": "bytes32",
          "name": "",
          "type": "bytes32"
        }
      ],
      "name": "orgExists",
      "outputs": [
        {
          "internalType": "bool",
          "name": "",
          "type": "bool"
        }
      ],
      "stateMutability": "view",
      "type": "function"
    },
    {
      "inputs": [
        {
          "internalType": "bytes32",
          "name": "",
          "type": "bytes32"
        }
      ],
      "name": "orgs",
      "outputs": [
        {
          "internalType": "bytes32",
          "name": "orgCode",
          "type": "bytes32"
        },
        {
          "internalType": "address",
          "name": "addr",
          "type": "address"
        }
      ],
      "stateMutability": "view",
      "type": "function"
    },
    {
      "inputs": [],
      "name": "owner",
      "outputs": [
        {
          "internalType": "address",
          "name": "",
          "type": "address"
        }
      ],
      "stateMutability": "view",
      "type": "function"
    },
    {
      "inputs": [
        {
          "internalType": "uint256",
          "name": "tokenId",
          "type": "uint256"
        }
      ],
      "name": "ownerOf",
      "outputs": [
        {
          "internalType": "address",
          "name": "",
          "type": "address"
        }
      ],
      "stateMutability": "view",
      "type": "function"
    },
    {
      "inputs": [
        {
          "internalType": "bytes32",
          "name": "orgCode",
          "type": "bytes32"
        }
      ],
      "name": "removeOrg",
      "outputs": [],
      "stateMutability": "nonpayable",
      "type": "function"
    },
    {
      "inputs": [],
      "name": "renounceOwnership",
      "outputs": [],
      "stateMutability": "nonpayable",
      "type": "function"
    },
    {
      "inputs": [
        {
          "internalType": "address",
          "name": "from",
          "type": "address"
        },
        {
          "internalType": "address",
          "name": "to",
          "type": "address"
        },
        {
          "internalType": "uint256",
          "name": "tokenId",
          "type": "uint256"
        }
      ],
      "name": "safeTransferFrom",
      "outputs": [],
      "stateMutability": "nonpayable",
      "type": "function"
    },
    {
      "inputs": [
        {
          "internalType": "address",
          "name": "from",
          "type": "address"
        },
        {
          "internalType": "address",
          "name": "to",
          "type": "address"
        },
        {
          "internalType": "uint256",
          "name": "tokenId",
          "type": "uint256"
        },
        {
          "internalType": "bytes",
          "name": "data",
          "type": "bytes"
        }
      ],
      "name": "safeTransferFrom",
      "outputs": [],
      "stateMutability": "nonpayable",
      "type": "function"
    },
    {
      "inputs": [
        {
          "internalType": "address",
          "name": "operator",
          "type": "address"
        },
        {
          "internalType": "bool",
          "name": "approved",
          "type": "bool"
        }
      ],
      "name": "setApprovalForAll",
      "outputs": [],
      "stateMutability": "nonpayable",
      "type": "function"
    },
    {
      "inputs": [
        {
          "internalType": "bytes4",
          "name": "interfaceId",
          "type": "bytes4"
        }
      ],
      "name": "supportsInterface",
      "outputs": [
        {
          "internalType": "bool",
          "name": "",
          "type": "bool"
        }
      ],
      "stateMutability": "view",
      "type": "function"
    },
    {
      "inputs": [],
      "name": "symbol",
      "outputs": [
        {
          "internalType": "string",
          "name": "",
          "type": "string"
        }
      ],
      "stateMutability": "view",
      "type": "function"
    },
    {
      "inputs": [
        {
          "internalType": "uint256",
          "name": "tokenId",
          "type": "uint256"
        }
      ],
      "name": "tokenToURI",
      "outputs": [
        {
          "internalType": "string",
          "name": "",
          "type": "string"
        }
      ],
      "stateMutability": "view",
      "type": "function"
    },
    {
      "inputs": [
        {
          "internalType": "uint256",
          "name": "tokenId",
          "type": "uint256"
        }
      ],
      "name": "tokenURI",
      "outputs": [
        {
          "internalType": "string",
          "name": "",
          "type": "string"
        }
      ],
      "stateMutability": "view",
      "type": "function"
    },
    {
      "inputs": [
        {
          "internalType": "address",
          "name": "from",
          "type": "address"
        },
        {
          "internalType": "address",
          "name": "to",
          "type": "address"
        },
        {
          "internalType": "uint256",
          "name": "tokenId",
          "type": "uint256"
        }
      ],
      "name": "transferFrom",
      "outputs": [],
      "stateMutability": "nonpayable",
      "type": "function"
    },
    {
      "inputs": [
        {
          "internalType": "address",
          "name": "newOwner",
          "type": "address"
        }
      ],
      "name": "transferOwnership",
      "outputs": [],
      "stateMutability": "nonpayable",
      "type": "function"
    },
    {
      "inputs": [
        {
          "internalType": "uint256",
          "name": "tokenId",
          "type": "uint256"
        },
        {
          "internalType": "string",
          "name": "newURI",
          "type": "string"
        }
      ],
      "name": "uriChanger",
      "outputs": [],
      "stateMutability": "nonpayable",
      "type": "function"
    },
    {
      "inputs": [
        {
          "internalType": "uint256",
          "name": "tokenId",
          "type": "uint256"
        }
      ],
      "name": "verify",
      "outputs": [
        {
          "internalType": "string",
          "name": "",
          "type": "string"
        },
        {
          "internalType": "address",
          "name": "",
          "type": "address"
        },
        {
          "internalType": "bytes32",
          "name": "",
          "type": "bytes32"
        }
      ],
      "stateMutability": "view",
      "type": "function"
    }
  ],
  "bytecode": "0x608060405234801561001057600080fd5b50336040518060400160405280601481526020017f566572694d696e742043657274696669636174650000000000000000000000008152506040518060400160405280600481526020017f5645524900000000000000000000000000000000000000000000000000000000815250816000908161008d919061043d565b50806001908161009d919061043d565b505050600073ffffffffffffffffffffffffffffffffffffffff168173ffffffffffffffffffffffffffffffffffffffff16036101125760006040517f1e4fbdf70000000000000000000000000000000000000000000000000000000081526004016101099190610550565b60405180910390fd5b6101218161012760201b60201c565b5061056b565b6000600660009054906101000a900473ffffffffffffffffffffffffffffffffffffffff16905081600660006101000a81548173ffffffffffffffffffffffffffffffffffffffff021916908373ffffffffffffffffffffffffffffffffffffffff1602179055508173ffffffffffffffffffffffffffffffffffffffff168173ffffffffffffffffffffffffffffffffffffffff167f8be0079c531659141344cd1fd0a4f28419497f9722a3daafe3b4186f6b6457e060405160405180910390a35050565b600081519050919050565b7f4e487b7100000000000000000000000000000000000000000000000000000000600052604160045260246000fd5b7f4e487b7100000000000000000000000000000000000000000000000000000000600052602260045260246000fd5b6000600282049050600182168061026e57607f821691505b60208210810361028157610280610227565b5b50919050565b60008190508160005260206000209050919050565b60006020601f8301049050919050565b600082821b905092915050565b6000600883026102e97fffffffffffffffffffffffffffffffffffffffffffffffffffffffffffffffff826102ac565b6102f386836102ac565b95508019841693508086168417925050509392505050565b6000819050919050565b6000819050919050565b600061033a6103356103308461030b565b610315565b61030b565b9050919050565b6000819050919050565b6103548361031f565b61036861036082610341565b8484546102b9565b825550505050565b600090565b61037d610370565b61038881848461034b565b505050565b5b818110156103ac576103a1600082610375565b60018101905061038e565b5050565b601f8211156103f1576103c281610287565b6103cb8461029c565b810160208510156103da578190505b6103ee6103e68561029c565b83018261038d565b50505b505050565b600082821c905092915050565b6000610414600019846008026103f6565b1980831691505092915050565b600061042d8383610403565b9150826002028217905092915050565b610446826101ed565b67ffffffffffffffff81111561045f5761045e6101f8565b5b6104698254610256565b6104748282856103b0565b600060209050601f8311600181146104a75760008415610495578287015190505b61049f8582610421565b865550610507565b601f1984166104b586610287565b60005b828110156104dd578489015182556001820191506020850194506020810190506104b8565b868310156104fa57848901516104f6601f891682610403565b8355505b6001600288020188555050505b505050505050565b600073ffffffffffffffffffffffffffffffffffffffff82169050919050565b600061053a8261050f565b9050919050565b61054a8161052f565b82525050565b60006020820190506105656000830184610541565b92915050565b61367e8061057a6000396000f3fe608060405234801561001057600080fd5b50600436106101735760003560e01c8063715018a6116100de578063a3e84beb11610097578063d34047b611610071578063d34047b614610471578063e3566f73146104a1578063e985e9c5146104d1578063f2fde38b1461050157610173565b8063a3e84beb146103f4578063b88d4fde14610425578063c87b56dd1461044157610173565b8063715018a6146103445780638753367f1461034e5780638da5cb5b1461038057806395d89b411461039e57806398c71765146103bc578063a22cb465146103d857610173565b80632f6b16d7116101305780632f6b16d71461024a57806342842e0e1461027a5780636352211e1461029657806364b8cbb4146102c6578063663b3e22146102e257806370a082311461031457610173565b806301ffc9a71461017857806306fdde03146101a8578063081812fc146101c6578063095ea7b3146101f65780630c518a451461021257806323b872dd1461022e575b600080fd5b610192600480360381019061018d91906125c7565b61051d565b60405161019f919061260f565b60405180910390f35b6101b06105ff565b6040516101bd91906126ba565b60405180910390f35b6101e060048036038101906101db9190612712565b610691565b6040516101ed9190612780565b60405180910390f35b610210600480360381019061020b91906127c7565b6106ad565b005b61022c6004803603810190610227919061283d565b6106c3565b005b6102486004803603810190610243919061287d565b610827565b005b610264600480360381019061025f9190612712565b610929565b60405161027191906126ba565b60405180910390f35b610294600480360381019061028f919061287d565b610a48565b005b6102b060048036038101906102ab9190612712565b610a68565b6040516102bd9190612780565b60405180910390f35b6102e060048036038101906102db9190612935565b610a7a565b005b6102fc60048036038101906102f79190612712565b610c69565b60405161030b939291906129a4565b60405180910390f35b61032e600480360381019061032991906129e2565b610d3b565b60405161033b9190612a1e565b60405180910390f35b61034c610df5565b005b61036860048036038101906103639190612712565b610e09565b604051610377939291906129a4565b60405180910390f35b610388610fb6565b6040516103959190612780565b60405180910390f35b6103a6610fe0565b6040516103b391906126ba565b60405180910390f35b6103d660048036038101906103d19190612a39565b611072565b005b6103f260048036038101906103ed9190612a92565b61117c565b005b61040e60048036038101906104099190612a39565b611192565b60405161041c929190612ad2565b60405180910390f35b61043f600480360381019061043a9190612c2b565b6111d6565b005b61045b60048036038101906104569190612712565b6111f3565b60405161046891906126ba565b60405180910390f35b61048b60048036038101906104869190612cae565b61125c565b6040516104989190612a1e565b60405180910390f35b6104bb60048036038101906104b69190612a39565b6114c6565b6040516104c8919061260f565b60405180910390f35b6104eb60048036038101906104e69190612d22565b6114e6565b6040516104f8919061260f565b60405180910390f35b61051b600480360381019061051691906129e2565b61157a565b005b60007f80ac58cd000000000000000000000000000000000000000000000000000000007bffffffffffffffffffffffffffffffffffffffffffffffffffffffff1916827bffffffffffffffffffffffffffffffffffffffffffffffffffffffff191614806105e857507f5b5e139f000000000000000000000000000000000000000000000000000000007bffffffffffffffffffffffffffffffffffffffffffffffffffffffff1916827bffffffffffffffffffffffffffffffffffffffffffffffffffffffff1916145b806105f857506105f782611600565b5b9050919050565b60606000805461060e90612d91565b80601f016020809104026020016040519081016040528092919081815260200182805461063a90612d91565b80156106875780601f1061065c57610100808354040283529160200191610687565b820191906000526020600020905b81548152906001019060200180831161066a57829003601f168201915b5050505050905090565b600061069c8261166a565b506106a6826116f2565b9050919050565b6106bf82826106ba61172f565b611737565b5050565b6106cb611749565b6008600083815260200190815260200160002060009054906101000a900460ff161561072c576040517f08c379a000000000000000000000000000000000000000000000000000000000815260040161072390612e0e565b60405180910390fd5b60405180604001604052808381526020018273ffffffffffffffffffffffffffffffffffffffff16815250600760008481526020019081526020016000206000820151816000015560208201518160010160006101000a81548173ffffffffffffffffffffffffffffffffffffffff021916908373ffffffffffffffffffffffffffffffffffffffff16021790555090505060016008600084815260200190815260200160002060006101000a81548160ff0219169083151502179055507ffac78dab179ca1da7c80a0ab625077527f9e28efdc94b49ce63694a97c8ae1e4828260405161081b929190612ad2565b60405180910390a15050565b600073ffffffffffffffffffffffffffffffffffffffff168273ffffffffffffffffffffffffffffffffffffffff16036108995760006040517f64a0ae920000000000000000000000000000000000000000000000000000000081526004016108909190612780565b60405180910390fd5b60006108ad83836108a861172f565b6117d0565b90508373ffffffffffffffffffffffffffffffffffffffff168173ffffffffffffffffffffffffffffffffffffffff1614610923578382826040517f64283d7b00000000000000000000000000000000000000000000000000000000815260040161091a93929190612e2e565b60405180910390fd5b50505050565b6060600073ffffffffffffffffffffffffffffffffffffffff1661094c83610a68565b73ffffffffffffffffffffffffffffffffffffffff16036109a2576040517f08c379a000000000000000000000000000000000000000000000000000000000815260040161099990612eb1565b60405180910390fd5b6009600083815260200190815260200160002060000180546109c390612d91565b80601f01602080910402602001604051908101604052809291908181526020018280546109ef90612d91565b8015610a3c5780601f10610a1157610100808354040283529160200191610a3c565b820191906000526020600020905b815481529060010190602001808311610a1f57829003601f168201915b50505050509050919050565b610a63838383604051806020016040528060008152506111d6565b505050565b6000610a738261166a565b9050919050565b600073ffffffffffffffffffffffffffffffffffffffff16610a9b84610a68565b73ffffffffffffffffffffffffffffffffffffffff1603610af1576040517f08c379a0000000000000000000000000000000000000000000000000000000008152600401610ae890612eb1565b60405180910390fd5b6000600960008581526020019081526020016000209050600860008260020154815260200190815260200160002060009054906101000a900460ff16610b6c576040517f08c379a0000000000000000000000000000000000000000000000000000000008152600401610b6390612f1d565b60405180910390fd5b3373ffffffffffffffffffffffffffffffffffffffff16600760008360020154815260200190815260200160002060010160009054906101000a900473ffffffffffffffffffffffffffffffffffffffff1673ffffffffffffffffffffffffffffffffffffffff1614610c14576040517f08c379a0000000000000000000000000000000000000000000000000000000008152600401610c0b90612f89565b60405180910390fd5b8282826000019182610c27929190613160565b507f8051ec9b4bf052f916dce66cec71dd11087c900c1997984e3888ed30ffd86235848484604051610c5b9392919061325d565b60405180910390a150505050565b6009602052806000526040600020600091509050806000018054610c8c90612d91565b80601f0160208091040260200160405190810160405280929190818152602001828054610cb890612d91565b8015610d055780601f10610cda57610100808354040283529160200191610d05565b820191906000526020600020905b815481529060010190602001808311610ce857829003601f168201915b5050505050908060010160009054906101000a900473ffffffffffffffffffffffffffffffffffffffff16908060020154905083565b60008073ffffffffffffffffffffffffffffffffffffffff168273ffffffffffffffffffffffffffffffffffffffff1603610dae5760006040517f89c62b64000000000000000000000000000000000000000000000000000000008152600401610da59190612780565b60405180910390fd5b600360008373ffffffffffffffffffffffffffffffffffffffff1673ffffffffffffffffffffffffffffffffffffffff168152602001908152602001600020549050919050565b610dfd611749565b610e07600061189d565b565b6060600080600073ffffffffffffffffffffffffffffffffffffffff16610e2f85610a68565b73ffffffffffffffffffffffffffffffffffffffff1603610e85576040517f08c379a0000000000000000000000000000000000000000000000000000000008152600401610e7c90612eb1565b60405180910390fd5b600060096000868152602001908152602001600020604051806060016040529081600082018054610eb590612d91565b80601f0160208091040260200160405190810160405280929190818152602001828054610ee190612d91565b8015610f2e5780601f10610f0357610100808354040283529160200191610f2e565b820191906000526020600020905b815481529060010190602001808311610f1157829003601f168201915b505050505081526020016001820160009054906101000a900473ffffffffffffffffffffffffffffffffffffffff1673ffffffffffffffffffffffffffffffffffffffff1673ffffffffffffffffffffffffffffffffffffffff1681526020016002820154815250509050806000015181602001518260400151935093509350509193909250565b6000600660009054906101000a900473ffffffffffffffffffffffffffffffffffffffff16905090565b606060018054610fef90612d91565b80601f016020809104026020016040519081016040528092919081815260200182805461101b90612d91565b80156110685780601f1061103d57610100808354040283529160200191611068565b820191906000526020600020905b81548152906001019060200180831161104b57829003601f168201915b5050505050905090565b61107a611749565b6008600082815260200190815260200160002060009054906101000a900460ff166110da576040517f08c379a00000000000000000000000000000000000000000000000000000000081526004016110d190612f1d565b60405180910390fd5b600760008281526020019081526020016000206000808201600090556001820160006101000a81549073ffffffffffffffffffffffffffffffffffffffff021916905550506008600082815260200190815260200160002060006101000a81549060ff02191690557f8dd1462a818233574cc2dd80fa051f7aceb0962bbb764e914ad1b8090b81834f81604051611171919061328f565b60405180910390a150565b61118e61118761172f565b8383611963565b5050565b60076020528060005260406000206000915090508060000154908060010160009054906101000a900473ffffffffffffffffffffffffffffffffffffffff16905082565b6111e1848484610827565b6111ed84848484611ad2565b50505050565b60606111fe8261166a565b506000611209611c89565b905060008151116112295760405180602001604052806000815250611254565b8061123384611ca0565b6040516020016112449291906132e6565b6040516020818303038152906040525b915050919050565b6000816008600082815260200190815260200160002060009054906101000a900460ff166112bf576040517f08c379a00000000000000000000000000000000000000000000000000000000081526004016112b690612f1d565b60405180910390fd5b3373ffffffffffffffffffffffffffffffffffffffff166007600083815260200190815260200160002060010160009054906101000a900473ffffffffffffffffffffffffffffffffffffffff1673ffffffffffffffffffffffffffffffffffffffff1614611363576040517f08c379a000000000000000000000000000000000000000000000000000000000815260040161135a90612f89565b60405180910390fd5b6000600a600081548092919061137890613339565b9190505590506113888782611d6e565b604051806060016040528087878080601f016020809104026020016040519081016040528093929190818152602001838380828437600081840152601f19601f8201169050808301925050505050505081526020018873ffffffffffffffffffffffffffffffffffffffff168152602001858152506009600083815260200190815260200160002060008201518160000190816114259190613381565b5060208201518160010160006101000a81548173ffffffffffffffffffffffffffffffffffffffff021916908373ffffffffffffffffffffffffffffffffffffffff160217905550604082015181600201559050507f7deb033804d58ed4870bb66f89687567163997c407051811fa979f0f45d0427a81888888886040516114b1959493929190613453565b60405180910390a18092505050949350505050565b60086020528060005260406000206000915054906101000a900460ff1681565b6000600560008473ffffffffffffffffffffffffffffffffffffffff1673ffffffffffffffffffffffffffffffffffffffff16815260200190815260200160002060008373ffffffffffffffffffffffffffffffffffffffff1673ffffffffffffffffffffffffffffffffffffffff16815260200190815260200160002060009054906101000a900460ff16905092915050565b611582611749565b600073ffffffffffffffffffffffffffffffffffffffff168173ffffffffffffffffffffffffffffffffffffffff16036115f45760006040517f1e4fbdf70000000000000000000000000000000000000000000000000000000081526004016115eb9190612780565b60405180910390fd5b6115fd8161189d565b50565b60007f01ffc9a7000000000000000000000000000000000000000000000000000000007bffffffffffffffffffffffffffffffffffffffffffffffffffffffff1916827bffffffffffffffffffffffffffffffffffffffffffffffffffffffff1916149050919050565b60008061167683611e67565b9050600073ffffffffffffffffffffffffffffffffffffffff168173ffffffffffffffffffffffffffffffffffffffff16036116e957826040517f7e2732890000000000000000000000000000000000000000000000000000000081526004016116e09190612a1e565b60405180910390fd5b80915050919050565b60006004600083815260200190815260200160002060009054906101000a900473ffffffffffffffffffffffffffffffffffffffff169050919050565b600033905090565b6117448383836001611ea4565b505050565b61175161172f565b73ffffffffffffffffffffffffffffffffffffffff1661176f610fb6565b73ffffffffffffffffffffffffffffffffffffffff16146117ce5761179261172f565b6040517f118cdaa70000000000000000000000000000000000000000000000000000000081526004016117c59190612780565b60405180910390fd5b565b6000806117dc84611e67565b9050600073ffffffffffffffffffffffffffffffffffffffff168173ffffffffffffffffffffffffffffffffffffffff16141580156118485750600073ffffffffffffffffffffffffffffffffffffffff168573ffffffffffffffffffffffffffffffffffffffff1614155b15611888576040517f08c379a000000000000000000000000000000000000000000000000000000000815260040161187f906134ed565b60405180910390fd5b611893858585612069565b9150509392505050565b6000600660009054906101000a900473ffffffffffffffffffffffffffffffffffffffff16905081600660006101000a81548173ffffffffffffffffffffffffffffffffffffffff021916908373ffffffffffffffffffffffffffffffffffffffff1602179055508173ffffffffffffffffffffffffffffffffffffffff168173ffffffffffffffffffffffffffffffffffffffff167f8be0079c531659141344cd1fd0a4f28419497f9722a3daafe3b4186f6b6457e060405160405180910390a35050565b600073ffffffffffffffffffffffffffffffffffffffff168273ffffffffffffffffffffffffffffffffffffffff16036119d457816040517f5b08ba180000000000000000000000000000000000000000000000000000000081526004016119cb9190612780565b60405180910390fd5b80600560008573ffffffffffffffffffffffffffffffffffffffff1673ffffffffffffffffffffffffffffffffffffffff16815260200190815260200160002060008473ffffffffffffffffffffffffffffffffffffffff1673ffffffffffffffffffffffffffffffffffffffff16815260200190815260200160002060006101000a81548160ff0219169083151502179055508173ffffffffffffffffffffffffffffffffffffffff168373ffffffffffffffffffffffffffffffffffffffff167f17307eab39ab6107e8899845ad3d59bd9653f200f220920489ca2b5937696c3183604051611ac5919061260f565b60405180910390a3505050565b60008373ffffffffffffffffffffffffffffffffffffffff163b1115611c83578273ffffffffffffffffffffffffffffffffffffffff1663150b7a02611b1661172f565b8685856040518563ffffffff1660e01b8152600401611b389493929190613562565b6020604051808303816000875af1925050508015611b7457506040513d601f19601f82011682018060405250810190611b7191906135c3565b60015b611bf8573d8060008114611ba4576040519150601f19603f3d011682016040523d82523d6000602084013e611ba9565b606091505b506000815103611bf057836040517f64a0ae92000000000000000000000000000000000000000000000000000000008152600401611be79190612780565b60405180910390fd5b805181602001fd5b63150b7a0260e01b7bffffffffffffffffffffffffffffffffffffffffffffffffffffffff1916817bffffffffffffffffffffffffffffffffffffffffffffffffffffffff191614611c8157836040517f64a0ae92000000000000000000000000000000000000000000000000000000008152600401611c789190612780565b60405180910390fd5b505b50505050565b606060405180602001604052806000815250905090565b606060006001611caf84612283565b01905060008167ffffffffffffffff811115611cce57611ccd612b00565b5b6040519080825280601f01601f191660200182016040528015611d005781602001600182028036833780820191505090505b509050600082602001820190505b600115611d63578080600190039150507f3031323334353637383961626364656600000000000000000000000000000000600a86061a8153600a8581611d5757611d566135f0565b5b04945060008503611d0e575b819350505050919050565b600073ffffffffffffffffffffffffffffffffffffffff168273ffffffffffffffffffffffffffffffffffffffff1603611de05760006040517f64a0ae92000000000000000000000000000000000000000000000000000000008152600401611dd79190612780565b60405180910390fd5b6000611dee838360006117d0565b9050600073ffffffffffffffffffffffffffffffffffffffff168173ffffffffffffffffffffffffffffffffffffffff1614611e625760006040517f73c6ac6e000000000000000000000000000000000000000000000000000000008152600401611e599190612780565b60405180910390fd5b505050565b60006002600083815260200190815260200160002060009054906101000a900473ffffffffffffffffffffffffffffffffffffffff169050919050565b8080611edd5750600073ffffffffffffffffffffffffffffffffffffffff168273ffffffffffffffffffffffffffffffffffffffff1614155b15612011576000611eed8461166a565b9050600073ffffffffffffffffffffffffffffffffffffffff168373ffffffffffffffffffffffffffffffffffffffff1614158015611f5857508273ffffffffffffffffffffffffffffffffffffffff168173ffffffffffffffffffffffffffffffffffffffff1614155b8015611f6b5750611f6981846114e6565b155b15611fad57826040517fa9fbf51f000000000000000000000000000000000000000000000000000000008152600401611fa49190612780565b60405180910390fd5b811561200f57838573ffffffffffffffffffffffffffffffffffffffff168273ffffffffffffffffffffffffffffffffffffffff167f8c5be1e5ebec7d5bd14f71427d1e84f3dd0314c0f7b2291e5b200ac8c7c3b92560405160405180910390a45b505b836004600085815260200190815260200160002060006101000a81548173ffffffffffffffffffffffffffffffffffffffff021916908373ffffffffffffffffffffffffffffffffffffffff16021790555050505050565b60008061207584611e67565b9050600073ffffffffffffffffffffffffffffffffffffffff168373ffffffffffffffffffffffffffffffffffffffff16146120b7576120b68184866123d6565b5b600073ffffffffffffffffffffffffffffffffffffffff168173ffffffffffffffffffffffffffffffffffffffff1614612148576120f9600085600080611ea4565b6001600360008373ffffffffffffffffffffffffffffffffffffffff1673ffffffffffffffffffffffffffffffffffffffff168152602001908152602001600020600082825403925050819055505b600073ffffffffffffffffffffffffffffffffffffffff168573ffffffffffffffffffffffffffffffffffffffff16146121cb576001600360008773ffffffffffffffffffffffffffffffffffffffff1673ffffffffffffffffffffffffffffffffffffffff168152602001908152602001600020600082825401925050819055505b846002600086815260200190815260200160002060006101000a81548173ffffffffffffffffffffffffffffffffffffffff021916908373ffffffffffffffffffffffffffffffffffffffff160217905550838573ffffffffffffffffffffffffffffffffffffffff168273ffffffffffffffffffffffffffffffffffffffff167fddf252ad1be2c89b69c2b068fc378daa952ba7f163c4a11628f55a4df523b3ef60405160405180910390a4809150509392505050565b600080600090507a184f03e93ff9f4daa797ed6e38ed64bf6a1f01000000000000000083106122e1577a184f03e93ff9f4daa797ed6e38ed64bf6a1f01000000000000000083816122d7576122d66135f0565b5b0492506040810190505b6d04ee2d6d415b85acef8100000000831061231e576d04ee2d6d415b85acef81000000008381612314576123136135f0565b5b0492506020810190505b662386f26fc10000831061234d57662386f26fc100008381612343576123426135f0565b5b0492506010810190505b6305f5e1008310612376576305f5e100838161236c5761236b6135f0565b5b0492506008810190505b612710831061239b576127108381612391576123906135f0565b5b0492506004810190505b606483106123be57606483816123b4576123b36135f0565b5b0492506002810190505b600a83106123cd576001810190505b80915050919050565b6123e183838361249a565b61249557600073ffffffffffffffffffffffffffffffffffffffff168373ffffffffffffffffffffffffffffffffffffffff160361245657806040517f7e27328900000000000000000000000000000000000000000000000000000000815260040161244d9190612a1e565b60405180910390fd5b81816040517f177e802f00000000000000000000000000000000000000000000000000000000815260040161248c92919061361f565b60405180910390fd5b505050565b60008073ffffffffffffffffffffffffffffffffffffffff168373ffffffffffffffffffffffffffffffffffffffff161415801561255257508273ffffffffffffffffffffffffffffffffffffffff168473ffffffffffffffffffffffffffffffffffffffff161480612513575061251284846114e6565b5b8061255157508273ffffffffffffffffffffffffffffffffffffffff16612539836116f2565b73ffffffffffffffffffffffffffffffffffffffff16145b5b90509392505050565b6000604051905090565b600080fd5b600080fd5b60007fffffffff0000000000000000000000000000000000000000000000000000000082169050919050565b6125a48161256f565b81146125af57600080fd5b50565b6000813590506125c18161259b565b92915050565b6000602082840312156125dd576125dc612565565b5b60006125eb848285016125b2565b91505092915050565b60008115159050919050565b612609816125f4565b82525050565b60006020820190506126246000830184612600565b92915050565b600081519050919050565b600082825260208201905092915050565b60005b83811015612664578082015181840152602081019050612649565b60008484015250505050565b6000601f19601f8301169050919050565b600061268c8261262a565b6126968185612635565b93506126a6818560208601612646565b6126af81612670565b840191505092915050565b600060208201905081810360008301526126d48184612681565b905092915050565b6000819050919050565b6126ef816126dc565b81146126fa57600080fd5b50565b60008135905061270c816126e6565b92915050565b60006020828403121561272857612727612565565b5b6000612736848285016126fd565b91505092915050565b600073ffffffffffffffffffffffffffffffffffffffff82169050919050565b600061276a8261273f565b9050919050565b61277a8161275f565b82525050565b60006020820190506127956000830184612771565b92915050565b6127a48161275f565b81146127af57600080fd5b50565b6000813590506127c18161279b565b92915050565b600080604083850312156127de576127dd612565565b5b60006127ec858286016127b2565b92505060206127fd858286016126fd565b9150509250929050565b6000819050919050565b61281a81612807565b811461282557600080fd5b50565b60008135905061283781612811565b92915050565b6000806040838503121561285457612853612565565b5b600061286285828601612828565b9250506020612873858286016127b2565b9150509250929050565b60008060006060848603121561289657612895612565565b5b60006128a4868287016127b2565b93505060206128b5868287016127b2565b92505060406128c6868287016126fd565b9150509250925092565b600080fd5b600080fd5b600080fd5b60008083601f8401126128f5576128f46128d0565b5b8235905067ffffffffffffffff811115612912576129116128d5565b5b60208301915083600182028301111561292e5761292d6128da565b5b9250929050565b60008060006040848603121561294e5761294d612565565b5b600061295c868287016126fd565b935050602084013567ffffffffffffffff81111561297d5761297c61256a565b5b612989868287016128df565b92509250509250925092565b61299e81612807565b82525050565b600060608201905081810360008301526129be8186612681565b90506129cd6020830185612771565b6129da6040830184612995565b949350505050565b6000602082840312156129f8576129f7612565565b5b6000612a06848285016127b2565b91505092915050565b612a18816126dc565b82525050565b6000602082019050612a336000830184612a0f565b92915050565b600060208284031215612a4f57612a4e612565565b5b6000612a5d84828501612828565b91505092915050565b612a6f816125f4565b8114612a7a57600080fd5b50565b600081359050612a8c81612a66565b92915050565b60008060408385031215612aa957612aa8612565565b5b6000612ab7858286016127b2565b9250506020612ac885828601612a7d565b9150509250929050565b6000604082019050612ae76000830185612995565b612af46020830184612771565b9392505050565b600080fd5b7f4e487b7100000000000000000000000000000000000000000000000000000000600052604160045260246000fd5b612b3882612670565b810181811067ffffffffffffffff82111715612b5757612b56612b00565b5b80604052505050565b6000612b6a61255b565b9050612b768282612b2f565b919050565b600067ffffffffffffffff821115612b9657612b95612b00565b5b612b9f82612670565b9050602081019050919050565b82818337600083830152505050565b6000612bce612bc984612b7b565b612b60565b905082815260208101848484011115612bea57612be9612afb565b5b612bf5848285612bac565b509392505050565b600082601f830112612c1257612c116128d0565b5b8135612c22848260208601612bbb565b91505092915050565b60008060008060808587031215612c4557612c44612565565b5b6000612c53878288016127b2565b9450506020612c64878288016127b2565b9350506040612c75878288016126fd565b925050606085013567ffffffffffffffff811115612c9657612c9561256a565b5b612ca287828801612bfd565b91505092959194509250565b60008060008060608587031215612cc857612cc7612565565b5b6000612cd6878288016127b2565b945050602085013567ffffffffffffffff811115612cf757612cf661256a565b5b612d03878288016128df565b93509350506040612d1687828801612828565b91505092959194509250565b60008060408385031215612d3957612d38612565565b5b6000612d47858286016127b2565b9250506020612d58858286016127b2565b9150509250929050565b7f4e487b7100000000000000000000000000000000000000000000000000000000600052602260045260246000fd5b60006002820490506001821680612da957607f821691505b602082108103612dbc57612dbb612d62565b5b50919050565b7f4f726720616c7265616479206578697374730000000000000000000000000000600082015250565b6000612df8601283612635565b9150612e0382612dc2565b602082019050919050565b60006020820190508181036000830152612e2781612deb565b9050919050565b6000606082019050612e436000830186612771565b612e506020830185612a0f565b612e5d6040830184612771565b949350505050565b7f546f6b656e20646f6573206e6f74206578697374000000000000000000000000600082015250565b6000612e9b601483612635565b9150612ea682612e65565b602082019050919050565b60006020820190508181036000830152612eca81612e8e565b9050919050565b7f4f726720646f6573206e6f742065786973740000000000000000000000000000600082015250565b6000612f07601283612635565b9150612f1282612ed1565b602082019050919050565b60006020820190508181036000830152612f3681612efa565b9050919050565b7f4e6f7420617574686f72697a6564000000000000000000000000000000000000600082015250565b6000612f73600e83612635565b9150612f7e82612f3d565b602082019050919050565b60006020820190508181036000830152612fa281612f66565b9050919050565b600082905092915050565b60008190508160005260206000209050919050565b60006020601f8301049050919050565b600082821b905092915050565b6000600883026130167fffffffffffffffffffffffffffffffffffffffffffffffffffffffffffffffff82612fd9565b6130208683612fd9565b95508019841693508086168417925050509392505050565b6000819050919050565b600061305d613058613053846126dc565b613038565b6126dc565b9050919050565b6000819050919050565b61307783613042565b61308b61308382613064565b848454612fe6565b825550505050565b600090565b6130a0613093565b6130ab81848461306e565b505050565b5b818110156130cf576130c4600082613098565b6001810190506130b1565b5050565b601f821115613114576130e581612fb4565b6130ee84612fc9565b810160208510156130fd578190505b61311161310985612fc9565b8301826130b0565b50505b505050565b600082821c905092915050565b600061313760001984600802613119565b1980831691505092915050565b60006131508383613126565b9150826002028217905092915050565b61316a8383612fa9565b67ffffffffffffffff81111561318357613182612b00565b5b61318d8254612d91565b6131988282856130d3565b6000601f8311600181146131c757600084156131b5578287013590505b6131bf8582613144565b865550613227565b601f1984166131d586612fb4565b60005b828110156131fd578489013582556001820191506020850194506020810190506131d8565b8683101561321a5784890135613216601f891682613126565b8355505b6001600288020188555050505b50505050505050565b600061323c8385612635565b9350613249838584612bac565b61325283612670565b840190509392505050565b60006040820190506132726000830186612a0f565b8181036020830152613285818486613230565b9050949350505050565b60006020820190506132a46000830184612995565b92915050565b600081905092915050565b60006132c08261262a565b6132ca81856132aa565b93506132da818560208601612646565b80840191505092915050565b60006132f282856132b5565b91506132fe82846132b5565b91508190509392505050565b7f4e487b7100000000000000000000000000000000000000000000000000000000600052601160045260246000fd5b6000613344826126dc565b91507fffffffffffffffffffffffffffffffffffffffffffffffffffffffffffffffff82036133765761337561330a565b5b600182019050919050565b61338a8261262a565b67ffffffffffffffff8111156133a3576133a2612b00565b5b6133ad8254612d91565b6133b88282856130d3565b600060209050601f8311600181146133eb57600084156133d9578287015190505b6133e38582613144565b86555061344b565b601f1984166133f986612fb4565b60005b82811015613421578489015182556001820191506020850194506020810190506133fc565b8683101561343e578489015161343a601f891682613126565b8355505b6001600288020188555050505b505050505050565b60006080820190506134686000830188612a0f565b6134756020830187612771565b8181036040830152613488818587613230565b90506134976060830184612995565b9695505050505050565b7f536f756c626f756e643a207472616e7366657273206e6f7420616c6c6f776564600082015250565b60006134d7602083612635565b91506134e2826134a1565b602082019050919050565b60006020820190508181036000830152613506816134ca565b9050919050565b600081519050919050565b600082825260208201905092915050565b60006135348261350d565b61353e8185613518565b935061354e818560208601612646565b61355781612670565b840191505092915050565b60006080820190506135776000830187612771565b6135846020830186612771565b6135916040830185612a0f565b81810360608301526135a38184613529565b905095945050505050565b6000815190506135bd8161259b565b92915050565b6000602082840312156135d9576135d8612565565b5b60006135e7848285016135ae565b91505092915050565b7f4e487b7100000000000000000000000000000000000000000000000000000000600052601260045260246000fd5b60006040820190506136346000830185612771565b6136416020830184612a0f565b939250505056fea26469706673582212208e0361b97863a54ad77a718361207de685c6d62b8917cfad3f1fbb840def59b164736f6c634300081c0033",
  "linkReferences": {},
  "deployedLinkReferences": {}
}